:100000000C94DF010C9407020C9407020C94070275
:100010000C9407020C9407020C9407020C9407023C
:100020000C9407020C9407020C948E1E0C94221D53
:100030000C9407020C9407020C9407020C9407021C
:100040000C9407020C9407020C9407020C9407020C
:100050000C9473050C9407020C9407020C941D0277
:100060000C9407020C9407020C9407020C940702EC
:100070000C9407020C9407020C9407020C940702DC
:100080000C9407020C9407020C9407020C940702CC
:100090000C9407020C9407020C9407020C940702BC
:1000A0000C9407020C9407020C940702D80BDD0B8A
:1000B000E90BF00BFA0B010C0C0C120CCA0B430CE5
:1000C000D30BCD0B2E0C27083008300026082F0844
:1000D0002F0000602B00290035002B4400001E007B
:1000E000140004001D000000E0001F001A001600AC
:1000F0001B000000E10020000800070006000000CF
:100100002A00210015000900190000002B442200DC
:1001100017000A0005000000E2002E0013D00000C6
:1001200013D0000000002D0014D0000014D00000F7
:10013000000023001C000B0011000000E700240059
:1001400018000D00100000002B4425000C000E00CC
:10015000360000002C00260012000F0037000000BF
:10016000280027001300330038000000E6000000DC
:100170003100340000002B440000000000000000AB
:1001800000002B4400003A000000000000000000C6
:10019000E1003B000000045000000000E0003C00D3
:1001A00001500250000000004C003D00115008506A
:1001B000125000002B443E00425041504450000079
:1001C000000000000000000000000000000000002F
:1001D000000000000000000000003F00500150003F
:1001E0004A00000000004000510151004E00000094
:1001F0002B444100520152004B000000E700420036
:100200004F014F004D0000002B0043000000000094
:1002100000000000280044004500000000002B44BE
:10022000000005010906A101050719E029E71500ED
:1002300025017501950881029501750881019505D3
:1002400075010508190129059102950175039101B0
:1002500095067508150025FF0507190029FF81007F
:10026000C0050C0901A1018504150026FF03190032
:100270002AFF03950475108100C005010906A1013C
:100280008508050719E029E715002501750195087E
:1002900081020508190129089508750191020507D1
:1002A000750495018101190429DD150025017501E9
:1002B00095D98102750395018101C005010902A14B
:1002C0000185010509190129081500250195087501
:1002D00001810205010930093109381581257F7531
:1002E0000895038106050C0A38021581257F7508DB
:1002F00095018106C005010980A10185051500262B
:10030000FF00190029FF950175088100C00501094A
:1003100002A1010509190129081500250195087593
:1003200001810205010930093116000026FF7F75A1
:10033000109502810209381581257F750895018184
:1003400006C0080B000202020100090400000102BD
:10035000020000052400100105240101010424020B
:100360000605240600010705810310004009040169
:1003700000020A0000000705020240000007058392
:100380000240000012010002EF020140EDFE0713DF
:100390000001010203014572676F446F7820455ADE
:1003A000004572676F446F7820455A0004030904C2
:1003B000E2076214521642171E18F418031A112489
:1003C0001FBECFEFDAE0DEBFCDBF11E0A0E0B1E0AD
:1003D000EEEFFEE302C005900D92A037B107D9F70A
:1003E00024E0A0E7B1E001C01D92A73BB207E1F70E
:1003F00011E0CFEDD1E004C02197FE010E946A1FF9
:10040000C83DD107C9F70E940A020C947D1F0C94C5
:10041000000008950E94D4020E9409028DEA94E02F
:100420000E94061F0E94E304C0E0D0E00E94E7049F
:100430002097E1F30E940000F9CF1F920F920FB6B0
:100440000F9211242F933F938F939F93AF93BF935A
:100450008091710190917201A0917301B09174012A
:100460003091700123E0230F2D3720F40196A11D58
:10047000B11D05C026E8230F0296A11DB11D2093D2
:1004800070018093710190937201A0937301B093F6
:1004900074018091750190917601A0917701B091DE
:1004A00078010196A11DB11D80937501909376018D
:1004B000A0937701B0937801BF91AF919F918F91F5
:1004C0003F912F910F900FBE0F901F9018952FB74F
:1004D000F894609171017091720180917301909113
:1004E00074012FBF08953FB7F894809175019091E2
:1004F0007601A0917701B091780126B5A89B05C03F
:100500002F3F19F00196A11DB11D3FBFBA2FA92F92
:10051000982F8827820F911DA11DB11DBC01CD010F
:1005200042E0660F771F881F991F4A95D1F70895FB
:100530008F929F92AF92BF92CF92DF92EF92FF92F3
:100540006B017C010E9473024B015C01C114D10458
:10055000E104F10401F10E94351F0E947302DC01E5
:10056000CB0188199909AA09BB09883E9340A105C6
:10057000B10560F321E0C21AD108E108F10888EE64
:10058000880E83E0981EA11CB11CC114D104E104A3
:10059000F10419F7DBCFFF90EF90DF90CF90BF9081
:1005A000AF909F908F900895789484B5826084BDB9
:1005B00084B5816084BD85B5826085BD85B5816067
:1005C00085BDEEE6F0E0808181608083E1E8F0E0C7
:1005D0001082808182608083808181608083E0E8F6
:1005E000F0E0808181608083E1E9F0E080818260D9
:1005F0008083808181608083E0E9F0E08081816098
:100600008083E1ECF0E0808184608083808182607F
:100610008083808181608083E3ECF0E08081816071
:100620008083E0ECF0E0808182608083E2ECF0E0A7
:10063000808181608083EAE7F0E08081846080834C
:1006400080818260808380818160808380818068F6
:10065000808308950F931F93622FA801882329F0A8
:10066000813051F406EC10E002C00CEC10E023E005
:1006700086E493E00E94670F1F910F910895FF9207
:100680000F931F93CF93DF93CDB7DEB76D970FB660
:10069000F894DEBF0FBECDBF8C01F42E8DE1EBEEE2
:1006A000F3E0DE01119601900D928A95E1F76093D7
:1006B000CE0381E08093830142E869EFC8010E9484
:1006C00048090E941912FF2039F041E869EFC8017A
:1006D0000E9448090E9419128DE1FE013196AEEC8C
:1006E000B3E001900D928A95E1F76AE070E080E056
:1006F00090E06D960FB6F894DEBF0FBECDBFDF91D0
:10070000CF911F910F91FF900C9498020F931F931C
:10071000CF93DF9380918301882319F01092830196
:10072000B4C0D22FC42F8B0181E00E943B0A8111FB
:10073000ACC08D2F8170D1FF7DC04C2F50E0440F95
:10074000551FFA01E759FD4F811161C04081518168
:1007500029E030E0809180019091810124173507D4
:1007600059F5409185015091860160918701709102
:10077000880140937A0150937B0160937C017093D0
:100780007D0121E020937F0120E08217930741F053
:10079000F80180819181909381018093800175C0DF
:1007A0008091EB0380938201F80180819181909385
:1007B00081018093800118C027E030E024173507BD
:1007C000B1F420E08217930709F45FC01092800112
:1007D0001092810181E080937E016091EB0341E002
:1007E00089E290E00E943F0381E090E050C020E069
:1007F00030E08217930709F448C041E0609182011C
:100800000E943F0310928001109281013EC020811E
:10081000318189E090E08217930719F480917F017C
:1008200007C087E090E08217930779F580917E01F9
:1008300090E02DC0882349F1EC2FF0E0EE0FFF1F70
:10084000E759FD4F2081318189E090E082179307BD
:10085000A9F4809180019091810120E030E082171D
:10086000930749F041E0609182010E943F0310929A
:1008700080011092810110927F0107C087E090E013
:100880008217930711F410927E0180E090E0DF91CF
:10089000CF911F910F91089540918501509186014C
:1008A000609187017091880180917A0190917B011C
:1008B000A0917C01B0917D01481B590B6A0B7B0B09
:1008C0008091000190910101A0E0B0E084179507AC
:1008D000A607B707A0F410927F0180918001909144
:1008E000810120E030E08217930749F040E06091F9
:1008F00082010E943F0310928001109281010895AD
:1009000080E090E0089582E393E00E94D90D80E0BA
:1009100090E0089586E193E00E94510B80E090E022
:10092000089580E090E008950F931F93CF93DF9395
:10093000EC01162F042F242F462FBC0182E393E0F5
:100940000E94380D0197E9F0202F412FBE0186E467
:1009500093E00E941A100197A1F0202F412FBE01B1
:1009600089E791E00E948603019759F0202F412FDB
:10097000BE0188E193E0DF91CF911F910F910C941C
:10098000570C81E090E0DF91CF911F910F91089576
:1009900080E090E0089582E393E00E94D90C88E122
:1009A00093E00C947B0C82E393E00E94D00C86E4ED
:1009B00093E00E94CE1089E791E00E944C0488E108
:1009C00093E00C94760C84E891E00C94EB0484E8BA
:1009D00091E00C940B05CF9340E855E260E070E0A5
:1009E00080E594E00E94FD190E94830489E891E06B
:1009F0000E9423050E944B110E9458120E9462120D
:100A00000E94540AC0E08C2F0E94FE09CF5FC435BB
:100A1000D1F7CF9108950E9467026093850170938A
:100A2000860180938701909388010E948A0489E857
:100A300091E00E9484070E94CB040E9419120E9438
:100A4000CA110C94D3040F931F93CF93DF930FB667
:100A5000F894A8958091600088618093600010925E
:100A600060000FBE64E670E080E090E00E949802B3
:100A700000E810E089EAF8018083C1E8D0E089E06D
:100A8000888324982C983F988AB18F7C8AB96E9875
:100A9000479A8BB180638BB9769A88E092E00E9486
:100AA00024088FE090E090938900809388009093D1
:100AB0008B0080938A0090938D0080938C0080E15E
:100AC0008883F801108280E295E3909387008093F9
:100AD000860081E1888381E080936F00DF91CF9170
:100AE0001F910F9108951F920F920FB60F9211242C
:100AF0008F9381E0809303018F910F900FBE0F9031
:100B00001F9018954F925F926F927F928F929F9253
:100B1000AF92BF92CF92DF92EF92FF920F931F930B
:100B2000CF93DF931092030188E092E00E94BC080B
:100B3000CAE8D1E023EF822E21E0922E3CEEE32E94
:100B400031E0F32E67015401412C512CB4C0815087
:100B5000888302E012E020E090E08981882321F080
:100B600081508983022F192F8A818111CEC00460A0
:100B7000102F8B818111CFC00860102F8C818111C3
:100B8000C1C00061102F8D818111B9C00062102F8A
:100B9000B20188E092E00E948408F70191917F0100
:100BA000702E709479228123782A972590FF03C0B4
:100BB00080910401888391FF03C08091040189839F
:100BC00092FF03C0809104018A8393FF03C0809148
:100BD00004018B8394FF03C0809104018C8395FFF3
:100BE00003C0809104018D83F60171926F01B201FF
:100BF000695F7F4F8AA5882309F47BC081508AA74B
:100C000012E092E0692E20E090E08BA5882321F08D
:100C100081508BA7122F692E8CA5811167C014609B
:100C2000612E8DA581115FC01860612E8EA5811186
:100C300057C01061612E8FA581114FC01062612EC7
:100C400088E092E00E948408F50191915F01712E85
:100C5000709479228621782A972590FF03C080918D
:100C600004018AA791FF03C0809104018BA792FF22
:100C700003C0809104018CA793FF03C080910401FD
:100C80008DA794FF03C0809104018EA795FF03C038
:100C9000809104018FA7F40171924F01B20188E0A5
:100CA00092E00E946A08FFEF4F1A5F0A269687E0DB
:100CB0004816510499F1B20188E092E00E9441087F
:100CC000B20188E092E00E946A08888181113FCFDA
:100CD00003E013E021E091E040CF81508FA7B0CF37
:100CE00081508EA7A8CF81508DA7A0CF81508CA70F
:100CF00098CF13E083E0682E21E091E086CF815009
:100D00008D8346CF81508C833ECF81508A838B81E7
:100D1000882309F431CF81508B8330CFDF91CF917D
:100D20001F910F91FF90EF90DF90CF90BF90AF9009
:100D30009F908F907F906F905F904F9008952F922B
:100D40003F924F925F926F927F928F929F92AF925B
:100D5000BF92CF92DF92EF92FF920F931F93CF93A8
:100D6000DF9300D01F92CDB7DEB7BCEE8B2EB1E083
:100D70009B2E8AEF91E09B838A831AEF212E11E04C
:100D8000312E95E0998351C0252F51FB662460F8E0
:100D9000712CB301660F771F81FB442740F9462B66
:100DA00009F08FC022FB002700F910E0B801660FA0
:100DB000771F82FB442740F9462B09F075C023FBBF
:100DC000EE24E0F8F12CB701660F771F83FB442770
:100DD00040F9462B09F05BC024FBCC24C0F8D12C91
:100DE000B601660F771F84FB442740F9462B09F0B4
:100DF00041C025FBAA24A0F8B12C9501220F331F76
:100E000085FB882780F9482F422B61F5EA81FB8119
:100E10005193FB83EA83FFEF8F1A9F0A89818A5FD0
:100E200089832814390409F459C0EA81FB8180813F
:100E3000F401508150FB442440F8512C9201220FC0
:100E4000331F482F4170422B09F49ECF69816550B2
:100E500080E090E00E944809EA81FB818081F401F2
:100E6000508192CF698180E090E00E944809F401AE
:100E70005081CCCF6981615080E090E00E944809A8
:100E8000EA81FB818081F4015081252FB2CF6981F5
:100E9000625080E090E00E944809EA81FB818081F5
:100EA000F4015081252F98CF6981635080E090E054
:100EB0000E944809EA81FB818081F4015081252F3D
:100EC0007ECF6981645080E090E00E944809EA8109
:100ED000FB818081F4015081252F64CF0F900F900A
:100EE0000F90DF91CF911F910F91FF90EF90DF90C6
:100EF000CF90BF90AF909F908F907F906F905F90BA
:100F00004F903F902F900895CF93DF93EC01809105
:100F10000301882329F010920301CE010E9482056B
:100F2000CE01DF91CF910C949F06862F6435B0F4EB
:100F300066E00E94361F292FE82FF0E0E252FE4FB4
:100F400081E090E0A0E0B0E004C0880F991FAA1FE4
:100F5000BB1F2A95D2F72081822B80830895862F8C
:100F60006435C8F466E00E94361FE82FF0E0E252D4
:100F7000FE4F41E050E060E070E004C0440F551FB8
:100F8000661F771F9A95D2F740955095609570959A
:100F90008081482340830895862F643588F466E075
:100FA0000E94361F292FE82FF0E0E252FE4F808189
:100FB00090E002C0959587952A95E2F78170089593
:100FC00080E0089580E2809308020895CF930E9404
:100FD000FD0868EE73E080E090E00E94980280E4F3
:100FE0000E940309C82F81112AC080E00E942D09A8
:100FF000C82F811124C080E00E942D09C82F8111C3
:101000001EC08FE30E942D09C82F811118C00E94B5
:10101000250980E40E940309C82F811110C08CE0CB
:101020000E942D09C82F81110AC080E00E942D095D
:10103000C82F811104C08FE30E942D09C82F0E9480
:1010400025098C2FCF910895CF93DF93EC010E9457
:10105000E607888380B38C7080BB81B3836F81BBCC
:1010600084B18F6084B985B18F6085B98AB18C6095
:101070008AB98BB18C608BB93E9A469ADF91CF9139
:1010800008951F93CF93DF93FC012081222321F049
:10109000DF91CF911F910895162FEC0180E40E94FB
:1010A00003098883882329F0DF91CF911F910C9445
:1010B000250982E10E942D0988838111F5CF81E005
:1010C00090E001C0880F1A95EAF780950E942D09DB
:1010D0008883EACFFB01E55DFE4F9081E92FF0E0C8
:1010E000F595E795F595E795F595E795F595E795E8
:1010F00032A1292F2F7081E090E001C0880F2A953E
:10110000EAF7832782A30895CF93DF9367307105B1
:1011100044F4FC012081222381F080E0DF91CF9113
:1011200008959FB18FB1807F869586959370892BA6
:1011300080958F73DF91CF910895EC0180E40E9438
:1011400003098883882339F0C0E00E9425098C2F89
:10115000DF91CF91089583E10E942D098883811149
:10116000F3CF81E40E94030988838111EDCF0E94AF
:101170003E09C82FC095E9CF0F931F93CF93DF93FC
:10118000EC0180910D0281110DC00E9467026093F5
:10119000090270930A0280930B0290930C0281E083
:1011A00080930D028881882319F10E9467020091C3
:1011B000090210910A0220910B0230910C02DC010D
:1011C000CB01801B910BA20BB30B88389341A10577
:1011D000B10570F0CE010E94E60788830E94670285
:1011E0006093090270930A0280930B0290930C02A1
:1011F000DF91CF911F910F9108951092B9008AE06D
:101200008093B800089594EA9093BC009091BC003C
:1012100097FFFCCF9091B900987F983021F09031E2
:1012200011F081E008958093BB0084E88093BC00B6
:101230008091BC0087FFFCCF8091B900887F883106
:1012400011F0803471F780E0089584E98093BC0048
:101250008091BC0084FDFCCF08958093BB0084E89E
:101260008093BC008091BC0087FFFCCF9091B900B7
:10127000987F81E0983209F480E0089584E88093B3
:10128000BC008091BC0087FFFCCF8091BB0008951B
:10129000FF920F931F93CF93DF9300D0CDB7DEB7AC
:1012A0009A838983062F142F6435D0F5842F82709A
:1012B000F82E41FF14C040FD12C089819A81009729
:1012C00011F046FF04C0802F0E94FE0908C0E62FDF
:1012D000F0E0EE0FFF1FE759FD4F91838083602FF1
:1012E00089E891E00E94CC07882349F010FF70C084
:1012F000F1106EC0602F89E891E00E94AF0729814C
:101300003A8180E090E02817390751F4E02FF0E0AF
:10131000EE0FFF1FE759FD4F808191819A838983EA
:10132000412F602FCE0101960E949404892B09F071
:101330004FC0802F66E00E94361F212F492F682F53
:10134000CE0101960E949104892B09F041C0412FE2
:10135000602F89819A810E94480B9A83898320E0BB
:1013600030E082179307A1F1F9800A8106FF1AC0C5
:1013700007FD2EC003FF07C011FF2AC08F2D902F3D
:101380000E945C1225C000FF23C011FD21C010FF88
:101390001FC08F2D902F0E9466128F2D902F0E94BC
:1013A0006B1216C0812F817011FF0AC0811102C01B
:1013B00061E001C060E08F2D902F0E94881108C06D
:1013C000882331F017FF04C08F2D902F0E94DA116F
:1013D0000F900F90DF91CF911F910F91FF90089583
:1013E00070E0FB0194E5899FE00DF11D1124EE0FE3
:1013F000FF1FEE52FF4F859194910895CF93DF9395
:10140000282F30E0E901CC0FDD1FC759DD4FD9018E
:10141000AB5EBD4FE0910501F0910601682F8C9104
:10142000099599838883DF91CF9108950F931F9336
:1014300080910201815040911203509113036091F9
:10144000140370911503882389F08A019B01082EEB
:1014500004C036952795179507950A94D2F700FF93
:1014600003C08093110304C08150EDCF109211038B
:101470001F910F9108950F931F9340911203509164
:10148000130360911403709115038A019B0104C03A
:1014900036952795179507958A95D2F7D901C801F2
:1014A00081701F910F9108950F931F93CF93DF9336
:1014B00084E5E5E1F2E0DF011D928A95E9F78F010D
:1014C000D0E0D435D9F0C09111031C169CF48C2FB8
:1014D0000E943B0A882361F0E0910501F09106012A
:1014E0006D2F8C2F0995019619F0F801C08302C069
:1014F000C150EBCFDF5F0F5F1F4FE3CFDF91CF9185
:101500001F910F9108950F931F9300911203109153
:1015100013032091140330911503B901A801082E7B
:1015200004C076956795579547950A94D2F740FF82
:1015300028C041E050E060E070E0082E04C0440F95
:10154000551F661F771F0A94D2F7409550956095F6
:1015500070954023512362237323409312035093C9
:10156000130360931403709315039091110389136F
:1015700002C00E94160A0E94540A1F910F910C94F7
:10158000C8041F910F910895CF939091020189177C
:1015900080F5C82F0E943B0A81112BC081E090E0AA
:1015A000A0E0B0E00C2E04C0880F991FAA1FBB1F3B
:1015B0000A94D2F7409112035091130360911403DF
:1015C00070911503842B952BA62BB72B80931203B8
:1015D00090931303A0931403B09315038091110308
:1015E0008C1710F40E94160A0E94540ACF910C9492
:1015F000C804CF910895809111038F5F0C94C40AA1
:10160000809111030C94830ACF93C82F862F827088
:10161000CA3248F1CA52C13289F0C232C9F461708B
:10162000882329F0611103C0CF910C94FB0A662333
:1016300069F181112BC0CF910C94000B617088234C
:1016400011F06623C1F3662309F181111FC0ECCFAD
:10165000882331F08C2F0E943B0A811117C012C0E1
:1016600060FD0CC013C0882389F060FD0FC08C2F73
:101670000E943B0A882331F0CC2321F08C2FCF919C
:101680000C94830A8C2FCF910C94C40ACF910895A7
:10169000943429F4642F0E94040B80E090E00895B4
:1016A00008959091B2048091070190FF0FC08111BD
:1016B0001AC080911703811106C081E0809317033F
:1016C00080E090E00EC081E090E00BC081111092AC
:1016D000070180911703882331F01092170382E0ED
:1016E00090E00E94500B80E090E00895CF93C42FCB
:1016F000462F40686FEF0E944809C11105C00E9443
:101700001912CF910C94C612CF9108950F931F9385
:10171000CF93DF93EC01062F142F61FF03C062E02B
:101720000E94760B00FF09C0412F61E0CE01DF91DE
:10173000CF911F910F910C94760BDF91CF911F9158
:101740000F910895362F642FFC018491422F932F1F
:101750000E94860B08958F929F92AF92BF92EF9254
:10176000FF920F931F93CF93DF93CB01009709F460
:1017700093C0F12CE12CEC012196FC01449150E046
:10178000FA013197ED30F10508F086C0EA5AFF4FB3
:101790000C946A1FFF24F39477C0CE018E2C912CF9
:1017A000A12CB12C48C00E9419120E94C6126CC014
:1017B0000296FE01E490EC0167C08C010E5F1F4FA2
:1017C000FE01C4916C2F70E080E090E00E949802CE
:1017D00021C0FE016491EC0123962F2D42E006C04A
:1017E000FE016491EC0123962F2D41E002960E94A8
:1017F000A20B4AC0FE016491EC01239620E043E075
:10180000F5CF8C010E5F1F4F2F2D42E060E0CE011F
:101810000E94A20BE80138C08C010E5F1F4F2F2DD4
:1018200041E0F4CF8C010E5F1F4F20E043E0EECF8C
:10183000112351F1CE01FE010491FC013196149166
:1018400040E063E0812F902F22960E94860BC50115
:10185000B4010E9498020111EDCFEACF8E2C912C99
:10186000A12CB12C2196FE013197149140E063E048
:10187000812F90E00E94860BC501B4010E9498025E
:101880001111F0CF01C0F12C6E2D70E080E090E0DE
:101890000E949802CE016FCFDF91CF911F910F91DF
:1018A000FF90EF90BF90AF909F908F900895FB01B5
:1018B00081818036A9F4809119038830A0F4908149
:1018C000E82FF0E0BF01660F771FE60FF71FE65E17
:1018D000FC4F9083418322838F5F8093190303C061
:1018E00080E090E0089581E090E00895109219035F
:1018F00080E090E00895CF93C0E080911903C8176D
:10190000B8F4EC2FF0E0CF01880F991FE80FF91F12
:10191000E65EFC4F818180930801628180810E9494
:101920008004BC0188E193E00E94AB0BCF5FE5CF60
:1019300080E090E0CF91089520918501309186015B
:101940004091330350913403B901641B750BAB0113
:101950006091090170910A016417750700F53093D1
:1019600034032093330380FF04C020E040910B0137
:1019700012C081FF05C040910B01419520E00BC0D2
:1019800082FF04C020910B01219504C083FF07C092
:1019900020910B0140E060E080E00C947312089508
:1019A0000E94C6120E94C2121092390380E090E099
:1019B000089590913903911103C010923C0355C0D2
:1019C0002091850130918601409137035091380371
:1019D000B901641B750BAB0160910F01709110018F
:1019E0006417750708F041C030933803209337031C
:1019F0004091350350913603B901641B750BAB015F
:101A000060910C0170910D0164177507A0F460914D
:101A10003C0380910E01E62FF0E04FEF50E0481BB1
:101A20005109E417F5071CF4860F80933C033093AB
:101A300036032093350390FF04C060911101619536
:101A400001C060E091FF03C080911101680F92FF17
:101A500004C080911101819501C080E093FF03C013
:101A600090911101890F0E94B00E80E090E00895DE
:101A7000CF93FB018181803509F062C08081382FCE
:101A80003072922F9270482F407486FF16C0311129
:101A900014C0C82FCF7B2170992341F0211102C0BF
:101AA0000E940A0E8C2F0E94E20D78C0222309F4B6
:101AB00075C08C2F0E94E40D71C031111DC02170C2
:101AC000992309F440C0211165C02091850130910E
:101AD00086013093380320933703309336032093E5
:101AE00035034091090150910A01241B350B3093B5
:101AF0003403209333034EC0992309F44FC020FDD3
:101B00004DC080FD02C090E001C092E021E0411193
:101B100001C020E0922B81FD02C020E001C024E042
:101B2000922B82FD02C020E001C028E0922B83FDB1
:101B300002C080E001C080E1892B0E94100E2EC0FF
:101B400080E090E034C0222349F1809590913903E0
:101B50008923809339038081982F937031F020E09E
:101B600084FD0DC040E061E011C0982F9C7049F0E9
:101B700084FD09C020E040E060E081E008C041E071
:101B800004C020E001C021E040E060E080E00E946D
:101B90007E1204C084FF05C00E949C0C81E090E08E
:101BA00006C090913903892B80933903F7CFCF91E9
:101BB00008950E94DE0D80E090E008950E946F126B
:101BC0000C94CA120C94B8120E94BD1210923D03DC
:101BD000089556954795640F751F3695279540E0F3
:101BE000820F931F0C94D61210923F0310923E0363
:101BF00010924103109240038FEF9FE790934503AB
:101C000080934403909343038093420381E0809345
:101C10003D03089580913D0381110C94F40D0895C6
:101C20000F931F93CF93C82F80913D03811102C062
:101C30000E94F40DC0FF06C010923D03CF911F918A
:101C40000F910895E09114010E2F10E0809144034C
:101C500090914503B8010E94421F9B017093450378
:101C6000609344038091420390914303B8010E9422
:101C7000421FAB0170934303609342037C2F747047
:101C800080913E0390913F03E0914003F091410326
:101C90006C2F6670663071F4820F931F90933F0330
:101CA00080933E03BA016E0F7F1F709341036093D0
:101CB000400334C0772361F0D8011197A49FB0018D
:101CC000A59F700DB49F700D1124E60FF71F04C07F
:101CD000C1FD06C0E40FF51FF0934103E0934003FC
:101CE000C4FF0CC0F8013197E29FB001E39F700D73
:101CF000F29F700D1124860F971F04C0C3FD06C00C
:101D0000820F931F90933F0380933E0360914003A3
:101D10007091410380913E0390913F03CF911F91B9
:101D20000F910C94E90D87FD0AC0889FC001112412
:101D3000880F892F881F990B91958F5F089520E058
:101D400031E0281B3109229FC001239F900D900D87
:101D50001124880F892F881F990B919580950895DC
:101D6000EF92FF920F931F93CF93DF93182F062FBD
:101D700080911301E82EF12C112309F44CC0662345
:101D800081F123E6829FC00111246CE870E00E947B
:101D9000561F6115710509F07B01212F012E000CE2
:101DA000330B43E61402C00111246CE870E00E947A
:101DB000561F6115710509F09B01122F202F002E6F
:101DC000000C330B43E60402C00111246CE870E000
:101DD0000E94561F6115710509F09B01022F112306
:101DE000D1F080913C030E94930E90913B03282FE9
:101DF0001203E0011124C90FD11D97FDDA95EC16ED
:101E0000FD0664F0882799278E199F09C817D907FE
:101E100034F4EC0104C0C0E0D0E001C0E7010023CD
:101E2000D9F080913C030E94930E20913A03382F01
:101E30000303C0011124820F911D27FD9A95E81616
:101E4000F90664F0222733272E193F097C018217F7
:101E5000930724F4790102C0E12CF12C10923D0388
:101E60002091120130E0C701B9010E94561FE62FF0
:101E7000CE01B9010E94561F862F20E040E06E2F50
:101E80000E9473122091120130E0CE01B9010E942C
:101E9000561F80933B03C701B9010E94561F8093D0
:101EA0003A03DF91CF911F910F91FF90EF9008952A
:101EB0001092470310924803E82FF0E0EE0FFF1F47
:101EC000E75BFC4F80818C7F8460808308950F9353
:101ED0001F93CF93DF93261708F4622FF801E60FC4
:101EE000F11DE60FF11D3297C591D4914430510593
:101EF00040F44230510560F44130510579F443E833
:101F000008C04430510551F40E94191241E801C043
:101F100042E860911501CE010E944809DF91CF91FE
:101F20001F910F9108950F931F93582F862F66E0EE
:101F30000E94361F8901242F492F682F852F0E9468
:101F40002A031F910F9108950F931F93CF93DF934F
:101F5000082F109147031351C12FD0E0CC0FDD1F84
:101F6000C75BDC4F22E030E0498160911501812F91
:101F70000E94930F88818260888310924703109299
:101F80004803602F89E891E00E9495070E9419128A
:101F90000E94CA11888180FD07C0812FDF91CF91F7
:101FA0001F910F910C94580FDF91CF911F910F91BA
:101FB00008951F93CF93DF93109147031351C12FBF
:101FC000D0E0CC0FDD1FC75BDC4F23E030E0498160
:101FD00060911501812F0E94930F88818260888310
:101FE00080FD0AC01092470310924803812FDF91B1
:101FF000CF911F910C94580FDF91CF911F910895AD
:10200000809147038351E82FF0E0EE0FFF1FE75B5D
:10201000FC4F41814F5F41832091850130918601C2
:1020200030936A032093690320E030E0609115014A
:102030000C94930FEF92FF920F931F93CF93DF9324
:1020400027FF03C080E090E0A2C0C22F142F7B01C5
:10205000FB0180819181AC014351504D2091470398
:102060003091480340315105C8F080E090E02817D6
:10207000390741F3C1FF05C0C0FD03C0812F0E9495
:10208000A40F612F89E891E00E94CC078823D1F248
:10209000612F89E891E00E94AF0777C0DDEED80F8D
:1020A0000C2F0170C0FF0BC0C1FD09C0ED2FF0E087
:1020B000EE0FFF1FE75BFC4F80818E7F8083F7016F
:1020C0004081518124173507B1F180E090E0281755
:1020D0003907B1F4ED2FF0E0EE0FFF1FE75BFC4F87
:1020E000808181FF06C0002309F44FC0C1FD4DC0AF
:1020F00016C050934803409347031093150136C010
:102100008C2F8270002379F081110DC0ED2FF0E04B
:10211000EE0FFF1FE75BFC4F81818823B1F18D2F0C
:102120000E94580F32C0882381F101112EC0812FE7
:102130000E94A40F04C0002311F0C1FF26C0F701C4
:1021400080819181909348038093470310931501F8
:10215000ED2FF0E0EE0FFF1FDF01A75BBC4F8C916E
:1021600081608C93C1FF05C0011103C00E94001063
:102170000CC0E75BFC4F808181FF07C021E030E0AD
:102180004181612F8D2F0E94930F81E090E0DF91BC
:10219000CF911F910F91FF90EF900895EF92FF92D2
:1021A0000F931F93CF93DF9399E4E92E93E0F92ED9
:1021B000C0E0D0E08E01000F111F075B1C4FF8013B
:1021C000808182FF0FC024E030E0F70141816091FF
:1021D00015018C2F0E94930FF7011182F801808165
:1021E0008B7F80832196F2E0EF0EF11CC031D10588
:1021F00009F7209147033091480380E090E02817C9
:10220000390799F0809185019091860120916903A9
:1022100030916A03821B930B2091160130911701B4
:102220002817390710F40E94D90F80E090E0DF9161
:10223000CF911F910F91FF90EF900895CF93DF936F
:1022400000D000D000D0CDB7DEB7DC0113967C9370
:102250006E93129715965C934E93149716963C9135
:10226000169739837B836A835D834C832E83ED913C
:10227000FC910190F081E02D46E050E0BE016F5FDF
:102280007F4F099526960FB6F894DEBF0FBECDBFDF
:10229000DF91CF9108958EEC93E00E9440178EE677
:1022A00093E00C945214CF93C82F8EE693E00E94D3
:1022B000AA136C2F811105C08EE693E0CF910C9488
:1022C000EC138EEC93E0CF910C94E016CF93C82FD3
:1022D00083FF04C081EE90E00E945311C0FF04C050
:1022E00080EE90E00E945311C1FF04C082EE90E0A6
:1022F0000E945311C2FF04C086EE90E00E94531169
:10230000C4FF04C083EE90E00E945311CF91089562
:10231000CF93DF93D82FC92F907C662399F08091BB
:102320006B03811102C010926D0380916D038C2BA1
:1023300080936D03911104C080E28D0F883020F0EE
:10234000D0936B03911108C080E28D0F883020F488
:102350008C2F0E94661105C080916C038C2B80939A
:102360006C038D2F9C2FDF91CF910C945311CF9341
:10237000C82F8EE693E00E94AA136C2F811105C02E
:102380008EE693E0CF910C9414148EEC93E0CF91F1
:102390000C9407178EE693E00E944B1410926B0387
:1023A00010926C038EEC93E00E94301780EB93E068
:1023B0000C941716CF93DF93D82FC92F80916D03FC
:1023C000892780936D03892F807C21F480E28D0F13
:1023D000883058F080916B038D1302C010926B030C
:1023E00080916C038C2780936C03C3FF04C081EE43
:1023F00090E00E94B711C0FF04C080EE90E00E9400
:10240000B711C1FF04C082EE90E00E94B711C2FF75
:1024100004C086EE90E00E94B711C4FF04C083EEB2
:1024200090E00E94B7118D2F9C2FDF91CF910C94DB
:10243000B71190916C0380916D0389230E946611FE
:102440008EE693E00E94AA1360916B03811116C07F
:10245000662381F08EE693E00E9414148EE693E0EA
:102460000E94AD1360916B038EE693E00E94EC1323
:1024700010926B038EE693E00C94AD13662381F00B
:102480008EEC93E00E9407178EEC93E00E9480167A
:1024900060916B038EEC93E00E94E01610926B0348
:1024A0008EEC93E00E94801680EB93E00C942A1649
:1024B00080EB93E00C945016BC01737080EB93E0BA
:1024C0000C94021683E394E00C940418682F83E3C1
:1024D00094E00C94061883E394E00C9402188BE1CA
:1024E00094E00C949E170F93022F242F462F682FF1
:1024F0008BE194E00E9446170F910895FF920F938D
:102500001F93CF93DF9300D000D01F92CDB7DEB7DB
:10251000F62E142F722F95E0EBE1F4E0DE01119618
:1025200001900D929A95E1F79A813B815C810D8132
:10253000882311F060E001C0692FFF2011F040E016
:1025400001C0432F112311F020E001C0252F71118C
:1025500000E08BE194E00E9446170F900F900F90DF
:102560000F900F90DF91CF911F910F91FF900895E1
:10257000682F8BE194E00C945417682F8BE194E062
:102580000C9459178BE194E00C944E178BE194E076
:102590000C946C17ECE3F4E0108A4685578564854B
:1025A000758520E086E494E00C941E11242FAB0185
:1025B000BC0186E494E00C941E11FC0182818F5BC7
:1025C000FB01808381E00895CF93DF93CDB7DEB721
:1025D00069970FB6F894DEBF0FBECDBFFC01DB01DB
:1025E0009C919F5F9C93BE016F5F7F4F89E1DB01F0
:1025F0001D928A95E9F729E0298384E08A8391E096
:102600009D8383E08E839F8398872A8721E22B878F
:102610009C879D879F8722E2288B2FE3298B27E0C9
:102620002B8B25E02C8B8E8B20E430E0388F2F8B8A
:10263000998F82818B83838180688D8B49E150E003
:1026400080E00E94D01C69960FB6F894DEBF0FBEE2
:10265000CDBFDF91CF910895FC01DB01828190E035
:1026600014962D913C91159782179307E1F51196D9
:102670008C9111979C91913A61F4813091F1833062
:1026800011F4848D03C0823071F5858D8093F10043
:1026900028C0913241F58B3021F412968C91848FB1
:1026A00020C08A3011F4158E1CC08930E1F4CF01AE
:1026B00016962D913C91179713964C91423039F410
:1026C0002130310581F461E070E04E9608C0413060
:1026D00051F42830310539F468E070E00B960E941F
:1026E000F71C81E0089580E00895FC01DB018C91E6
:1026F0008138B9F413968C911397823291F48281C8
:1027000090E014962D913C9115972817390749F4BC
:102710008285848F4FE350E062E272E080E80C949F
:10272000D01C80E090E00895FC0181E084838583E3
:102730009F01255E3F4F378326831186108626E34F
:1027400031E0318320838287848F858F168E81ECE0
:10275000838F0895FC01848D0895EF92FF920F936B
:102760001F93CF93DF93EC018C01055F1F4F7C011A
:1027700083E1E80EF11C48E050E0B801C7010E9477
:10278000701F892B01F18B8148E050E0B801806413
:102790000E94211CD82FC92FE091A803F091A90312
:1027A000309739F0282F392F48E050E0B80182E007
:1027B000099588E0F801D70101900D928A95E1F71B
:1027C0008D2F9C2F02C08FEF9FEFDF91CF911F9134
:1027D0000F91FF90EF90089520E2260F283058F4D3
:1027E00041E050E001C0440F2A95EAF7FC0123853F
:1027F000422B438716C0FC013D9620E030E041911A
:10280000641779F0411105C0FC01E20FF31F6587E1
:1028100008C02F5F3F4F2630310589F780E090E0F8
:10282000089581E090E0089520E2260F283068F4B2
:10283000622F21E030E001C0220F6A95EAF720956F
:10284000FC0133852323238723C0FC01AC014A5FAD
:102850005F4FDC011D962C911D97621303C01D96DE
:102860001C921D9711964A175B07A1F720E035854A
:10287000332351F0DC01A20FB11D1D966C911D9701
:102880001D963C9365872F5F3196E417F50779F71E
:1028900081E090E008950B9628E0FC0111922A95C2
:1028A000E9F70895CF93DF93EC010E94E41ABE018B
:1028B0000E949D1ACE010E944B14CE01DF91CF9150
:1028C0000C94AD138EE693E00C949413FB018BE60D
:1028D000808382E6818389E682838FE6838380E337
:1028E000848381E3858386E00895CF93DF93CDB71A
:1028F000DEB769970FB6F894DEBF0FBECDBFFC01FF
:10290000DB018C918F5F8C93BE016F5F7F4F89E1FC
:10291000DB011D928A95E9F729E0298384E08A8307
:1029200091E09D8383E08E832A8721E22B879C8719
:102930009D879F8722E2288B27E02B8B25E02C8B1D
:102940008E8B20E430E0388F2F8B998F82818B83A0
:1029500095858685998B8A8B838180688D8B49E1EB
:1029600050E080E00E94D01C69960FB6F894DEBF5C
:102970000FBECDBFDF91CF910895CF93DF93FC01C0
:10298000DB01828190E014962D913C91159782177E
:102990009307A9F511969C9111978C91813A31F486
:1029A00081E0913069F1933051F52AC0813239F5D7
:1029B0009B3021F412968C91878705C09A3029F4B8
:1029C00012968C91808B81E01BC09930C1F4EF018D
:1029D00016968D919C9117978230910539F462E09B
:1029E00070E0CF0141960E94F71C09C0019739F4AD
:1029F00061E070E0CF0142960E94F71C198A80E0E6
:102A0000DF91CF910895EF92FF920F931F93CF9391
:102A1000DF93FB012081213851F52381223239F5E2
:102A2000DC0112962C9130E0448155814217530706
:102A3000F1F4EC010B851C85E12CF12C011511053D
:102A400091F0F801448155816281738180E80E9490
:102A5000D01C8F3FFFEF9F0769F0E80EF91ED801E9
:102A60000D911C91EBCF81E08F87C70105C080E0FD
:102A700090E002C08FEF9FEFDF91CF911F910F91F8
:102A8000FF90EF900895FC01A385B485109719F489
:102A90007487638709C08D919C911197009711F0FD
:102AA000DC01F9CF6D937C9325853685DB01149687
:102AB0008D919C911597820F931F96878587089516
:102AC000AF92BF92CF92DF92EF92FF920F931F933C
:102AD000CF93DF931F92CDB7DEB77C0169836A0184
:102AE000590141E050E0BE016F5F7F4FFC018381DF
:102AF0000E94211C8C0197FD0BC0F7018381A50169
:102B0000B60180640E94211C97FD02C0800F911FB6
:102B10000F90DF91CF911F910F91FF90EF90DF9079
:102B2000CF90BF90AF900895CF92DF92EF92FF9237
:102B30001F93CF93DF93162F7A0169010E946015CE
:102B4000EC01E091A803F091A903309729F09C01D2
:102B5000A601B701812F0995CE01DF91CF911F9179
:102B6000FF90EF90DF90CF900895CF93DF93EC012B
:102B700081E08C838D839E01265F3F4F3F832E83B0
:102B80001986188622E431E0398328831C861B8647
:102B90001E861D868F87888B198A1A8A81EC8A8700
:102BA0000E94E41ABE01DF91CF910C949D1A80918E
:102BB000A003811107C08DE893E00E94B51581E064
:102BC0008093A0038DE893E008958091C003811164
:102BD00013C01092AB031092AA0381E692E0909387
:102BE000AD038093AC0389E190E09093AF038093B1
:102BF000AE0381E08093C0030E94D7156AEA73E0B8
:102C00000C944315DC0120E030E04D915D91452BA3
:102C100041F4220F331FFC01E20FF31F7183608325
:102C200008952F5F3F4F2430310579F7089528E04C
:102C3000FC0111922A95E9F70895CF93DF93EC01F7
:102C40000E94D71528E030E0AE0164E0DF91CF911B
:102C50000C9494150F931F93CF93DF93EC018C0189
:102C6000085F1F4F48E050E0BC01C8010E94701F80
:102C7000892B51F0CE010E941D1688E0FE01D8017B
:102C800001900D928A95E1F7DF91CF911F910F91FD
:102C9000089528E0FC0111922A95E9F70C942A1670
:102CA0000C94491680EB93E00C94E5158091080490
:102CB000811113C01092C9031092C8038AE792E0F1
:102CC0009093CB038093CA0381E490E09093CD036B
:102CD0008093CC0381E0809308040E94D71568ECB0
:102CE00073E00C944315CF93DF93EC010E94D7154A
:102CF0002DE130E0AE0168E0DF91CF910C949415A6
:102D0000EF92FF920F931F93CF93DF93EC017C011F
:102D10008DE1E80EF11C4DE150E0BE01C7010E94BB
:102D2000701F892B09F443C00D8D1881802F809569
:102D30008123B1F04CE150E0BE016F5F7F4FCE01C7
:102D40004E960E94701F892B59F01D8F0E94D71537
:102D50002DE130E0A70168E00E9494150D8F19C0A5
:102D6000812F80958023A9F04CE150E0BE016F5F78
:102D70007F4FCE014E960E94701F892B51F0088321
:102D80000E94D7152DE130E0AE0168E00E94941555
:102D90001883CE010E9473161816190654F42DE1FB
:102DA000FE01D70101900D922A95E1F702C08FEF45
:102DB0009FEFDF91CF911F910F91FF90EF900895BA
:102DC0006E3D90F4262F269526952695FC01E20F60
:102DD000F11D677081E090E001C0880F6A95EAF705
:102DE0009181892B81830DC0605E683068F421E099
:102DF00030E001C0220F6A95EAF7FC013081232BF5
:102E0000208381E090E0089580E090E008956E3D99
:102E100098F4262F269526952695FC01E20FF11DA4
:102E2000677081E090E001C0880F6A95EAF78095AD
:102E30009181892381830EC0605E683070F421E047
:102E400030E001C0220F6A95EAF72095FC0130813D
:102E50002323208381E090E0089580E090E00895AE
:102E60002DE1FC0111922A95E9F70895CF93DF93A4
:102E7000EC010E943017CE01DF91CF910C947316B4
:102E80000C9436178EEC93E00C9456160F93FC01BD
:102E900061834283238304830F91089525E0FC011D
:102EA00011922A95E9F70895FC012081622B608335
:102EB00008956095FC012081622360830895CF937B
:102EC000DF93EC010E94D71525E030E0AE0161E010
:102ED000DF91CF910C9494150F931F93CF93DF93B1
:102EE000EC018C010B5F1F4F45E050E0BC01C801B5
:102EF0000E94701F892B49F445E050E060E174E0C6
:102F0000CE010E94701F892B51F0CE010E945F17E5
:102F100085E0FE01D80101900D928A95E1F7DF91DD
:102F2000CF911F910F910895CF93DF93EC010E94F1
:102F30004E17CE01DF91CF910C946C17CF93DF9396
:102F4000EC0180912504811113C010921604109297
:102F500015048BEB92E090931804809317048AE396
:102F600090E090931A048093190481E080932504E3
:102F70000E94D71565E174E00E944315CE01DF91F0
:102F8000CF910C94941780913404811113C0109246
:102F90002E0410922D0485EF92E0909330048093DC
:102FA0002F0488E190E0909332048093310481E013
:102FB000809334040E94D7156DE274E00C9443159D
:102FC0000F931F93CF93DF93EB018A010E94D715D4
:102FD0009801AE0165E0DF91CF911F910F910C94A4
:102FE0009415CF93DF931F92CDB7DEB7198241E0DE
:102FF00050E0BE016F5F7F4F0E94E0170F90DF919E
:10300000CF9108950C94F1170C94F117CF93DF939F
:103010001F92CDB7DEB76983633829F48DEA94E057
:103020000E94191F07C041E050E0BE016F5F7F4F53
:103030000E94E0170F90DF91CF91089583E394E011
:103040000C94C317CF93DF93CDB7DEB769970FB654
:10305000F894DEBF0FBECDBFFC01DB019C919F5FEA
:103060009C93BE016F5F7F4F89E1DB011D928A95C2
:10307000E9F729E0298384E08A8391E09D8383E056
:103080008E832A8721E22B879C879D879F8722E258
:10309000288B25E3298B27E02B8B25E02C8B8E8B2F
:1030A00020E430E0388F2F8B998F82818B8383814E
:1030B00080688D8B49E150E080E00E94D01C6996C9
:1030C0000FB6F894DEBF0FBECDBFDF91CF9108954C
:1030D0000F931F93CF93DF93EB018A01FC01838150
:1030E00080640E94211CE091A803F091A90330970D
:1030F00049F09C01A801BE0187E0DF91CF911F91AB
:103100000F910994DF91CF911F910F9108950A9724
:103110000C946818FB0120812138B9F423812232F4
:10312000A1F4DC0112962C91129730E04481558174
:103130004217530751F421E052962C9345E350E097
:103140006DE073E080E80C94D01C80E090E008957E
:10315000DC01FB0112968C91129790E0248135815D
:1031600082179307D1F491818081813A31F481E013
:10317000913091F0933089F411C0813271F49B3019
:1031800021F4828152968C9305C09A3031F4828169
:1031900053968C9381E00895089580E00895CF932D
:1031A000DF93EC0181E08C838D839E012F5E3F4F86
:1031B0003F832E83198618861D861C861F861E86D1
:1031C000188A2EE431E0398328832CE531E03B87EF
:1031D0002A878A8B8B8B81EC898B0E94E41ABE0133
:1031E000DF91CF910C949D1A8CE394E00C94CF184E
:1031F000CF93DF931F92CDB7DEB76983DC01ED91EA
:10320000FC910280F381E02D41E050E0BE016F5F50
:103210007F4F09950F90DF91CF910895CF93DF9362
:10322000EC018C859D8597FF05C082E00E94F01B14
:103230009D878C878C859D85DF91CF91089583E054
:103240000E94071C90E0089583E00C94841EFC010A
:103250008485958597FD06C082E00E949C1B90E0C6
:103260000196089582E00E949C1B90E00895FC0165
:103270008485958597FD05C02FEF3FEF358724871F
:10328000089582E00C94F01BCF93DF93EC018091C2
:103290002301882331F083E00E94211C18161906AF
:1032A00034F081E090E09B838A8380E090E0DF91BE
:1032B000CF910895EEEFFFE72591349181E02B3F08
:1032C0003C4D09F080E00895FC0190819E5F908361
:1032D00042E450E062E473E080E80C94D01CFC010E
:1032E00081819081913A59F4813209F065C047E0BB
:1032F00050E06CE171E080E00E94D01C5BC0913234
:1033000009F05AC0833269F482819381A0E0B0E071
:103310008093180190931901A0931A01B0931B0197
:1033200049C0803239F467E070E08CE191E00E949E
:10333000F71C40C0823209F03DC082818093230196
:103340000E945A19882319F0EEEFFAE002C0E0E07B
:10335000F8E080911C0190911D01A0911E01B09197
:103360001F01803B9440A105B10541F580912301E7
:1033700080FD24C0EE3F8AE0F80751F08081918102
:10338000873727E7920721F09093FF0A8093FE0A80
:1033900087E797E791838083809160008093A00402
:1033A0009BE088E10FB6F894A895809360000FBE6B
:1033B0009093600081E0089580E00895808191817C
:1033C00087379747B9F7A895809160008861809307
:1033D00060008091A00480936000EE3F8AE0F807CF
:1033E00039F08091FE0A9091FF0A91838083E2CFA9
:1033F0001092FF0A1092FE0ADDCF2FEF3FEFFC0183
:10340000358724870895E0E5F4E01382128288EE80
:1034100093E0A0E0B0E084839583A683B78382E63F
:1034200091E0918380838FEF9FEF95878487089544
:10343000EF92FF920F931F93CF93DF937B01FC01D9
:10344000C281D38100E010E0209781F0E881F9810A
:103450000280F381E02DB701CE01099597FD08C0E8
:10346000080F191F0884D985C02DEECFC80102C0EE
:103470008FEF9FEFDF91CF911F910F91FF90EF9012
:1034800008950F931F93CF93DF938B01FC01C281AB
:10349000D381209771F0E881F9810480F581E02DD6
:1034A000B801CE010995009731F40884D985C02D63
:1034B000F0CF80E090E0DF91CF911F910F910895C0
:1034C0000F931F93CF93DF938B01FC01C281D381B4
:1034D000209771F0E881F9810680F781E02DB8012D
:1034E000CE010995080F111D0884D985C02DF0CF94
:1034F000F8011082DF91CF911F910F9108950F93E2
:103500001F93CF93DF938B01FC01C281D38120975E
:1035100071F0E881F9810190F081E02DB801CE01D0
:103520000995811105C00884D985C02DF0CF80E0B0
:10353000DF91CF911F910F910895CF93DF93FC01FD
:10354000DB01218114968C91149790E0820F911DDC
:103550000897A4F5C281D381209719F473836283FD
:1035600008C088859985009711F0EC01FACFB987DA
:10357000A887808112968C931297818113968C93E1
:103580001397908115968C911597890F808380E011
:1035900014969C911497891798F41696CD91DC9106
:1035A0001797C80FD11D9881C181D0E0CC5DDE4F47
:1035B000988391819F5F91838F5FEACF80E001C004
:1035C00081E0DF91CF9108958091A50481110DC014
:1035D00082E08093A10484E08093A2041092A4046A
:1035E0001092A30481E08093A50481EA94E00895F9
:1035F0004091B0045091B1042091AE043091AF04D9
:1036000042175307B4F49091E8009570E1F390915C
:10361000E80092FD19C08093F1008091B004909170
:10362000B10401968F739927892B19F48EEF80933B
:10363000E8008091B0049091B10401969093B10498
:103640008093B00481E0089580E00895DF92EF92C6
:10365000FF920F931F93CF93DF93D82EF92EE42E72
:10366000062F10E0C8010196880F0E94F81A83E027
:103670000E94F81ACD2DDF2D0C0F1D1FC017D1078A
:1036800089F0E7FE03C0FE01849101C088810E9499
:10369000F81AF82E80E00E94F81A8F2121968111E5
:1036A000EDCF01C081E0DF91CF911F910F91FF908D
:1036B000EF90DF9008958091D70081608093D700CC
:1036C00080EA8093D80089B5806189BD89B5826020
:1036D00089BD09B400FEFDCF61E070E080E090E0BC
:1036E0000E9498028091D8008F7C80618093D800DE
:1036F0008091E000807F8093E0000895CF93DF9376
:103700001F92CDB7DEB71982CE0101960E946419CF
:103710000E94E41ABE016F5F7F4F0E94181A8981D0
:103720000F90DF91CF9108952FB7FC012083F8947B
:1037300067706093E9000895CF93DF931F92CDB730
:10374000DEB7682FCE0101960E94941B8091F20093
:1037500099819FBF0F90DF91CF910895EF92FF92D3
:103760000F931F93CF93DF931F92CDB7DEB7909146
:10377000B404992311F057FF03C08FEF9FEF28C0C7
:103780008A017B01682FCE0101960E94941B209133
:10379000F20030E0021713070CF49801822FF701B2
:1037A00094E6815030F09093B5044091F10041933C
:1037B000F8CF2115310521F08091F200882321F006
:1037C00089818FBFC90104C08BE68093E800F8CFE0
:1037D0000F90DF91CF911F910F91FF90EF9008957F
:1037E000CF93DF931F92CDB7DEB741E050E0BE012B
:1037F0006F5F7F4F0E94AE1B019719F4898190E0A3
:1038000002C08FEF9FEF0F90DF91CF910895CF937C
:10381000DF931F92CDB7DEB7682FCE0101960E94CD
:10382000941B9091E800892F807295FF04C09091BD
:10383000F20080E4891B99819FBF0F90DF91CF91A7
:1038400008955F926F927F928F929F92AF92BF92F4
:10385000CF92DF92EF92FF920F931F93CF93DF935C
:103860001F92CDB7DEB7982E6B01B42E052F809135
:10387000B404811103C08FEF9FEF76C08091B20432
:1038800080FF05C08091E00082608093E000EB2C17
:10389000F02EA12C8AEF882E892D8072682E892D1A
:1038A0008074582E9AE3792EE114F10419F4AA20B9
:1038B00009F455C0892D0E94071C182F81110AC0D8
:1038C0008A948820C1F261E070E080E090E00E947C
:1038D0009802EACF90E0E816F9060CF41E2D692D47
:1038E000CE0101960E94941B8091E80085FF34C0B0
:1038F000812F90E0E81AF90A662029F01150A0F013
:103900001092F100FBCFF60197FE0AC0115050F063
:1039100024912093F1003196F9CF21912093F10069
:103920001150D8F7C80ED91EAA2019F07092E800DD
:103930000BC08091E80085FD09C07092E800AA24C0
:10394000A394E114F10441F0A12C06C0E114F104A8
:1039500019F451107092E80089818FBFA5CF84E6D9
:103960008093B6048B2D902F0F90DF91CF911F91F4
:103970000F91FF90EF90DF90CF90BF90AF909F900E
:103980008F907F906F905F9008951092E900109251
:10399000B1041092B0049093AF048093AE040895E4
:1039A000DF92EF92FF920F931F93CF93DF93D82E66
:1039B0008A017B01E40EF51EEB01CE15DF0571F0E7
:1039C000D7FE03C0FE01849101C088810E94F81ACD
:1039D00021968111F2CF8FEF9FEF01C0C801DF91D7
:1039E000CF911F910F91FF90EF90DF900895CF93AB
:1039F000DF93EC019B01B4E6ABEF21153105F1F04B
:103A0000A9012134310514F040E450E08091E80030
:103A100082FFFCCF942FFB01E21BF30BEC0FFD1F89
:103A2000915028F08091F10080833196F9CFB093C6
:103A3000B504A093E800241B350BDFCFCB01DF9149
:103A4000CF9108951F920F920FB60F921124CF922B
:103A5000DF92EF92FF920F931F932F933F934F9319
:103A60005F936F937F938F939F93AF93BF93EF93E6
:103A7000FF93CF93DF93CDB7DEB76C97DEBFCDBF9B
:103A80001092E9008091E80083FF1FC189E0FE01E8
:103A90007596FE2E0F2F815029F09091F1009083A2
:103AA0003196F9CF84E68093B50482EF8093E800E5
:103AB0008D8987FF05C09091E80090FFFCCF03C07F
:103AC0009EEF9093E800982F907609F0D7C09E89DA
:103AD0004F89588D2F89188D91110CC0803829F489
:103AE0008091B3048093F10002C01092F100109213
:103AF000F100E4C0913051F48111E0C04130510532
:103B000009F0DCC08091B3048D7F0BC0933061F469
:103B10008111D4C04130510509F0D0C08091B30467
:103B200082608093B304CAC0953049F48091E80064
:103B300080FFFCCF822F80688093E300BFC0963067
:103B400009F06FC0CB8CDC8C123069F580E090E01E
:103B50000E94C51C0E947E1B99E09E012F5F3F4F73
:103B60007901F901292F11922A95E9F799831A838E
:103B700091E09E8390EA98879AEF99872091B0040C
:103B80003091B104275F3F4F3C832B838D83C60167
:103B90000E94C51C49E050E0B70180E00E94D01CA3
:103BA0000E947E1B8BC0C6010E94C51C0E94E41AA5
:103BB0006F2D702F0E94411A009719F00CF07EC0F3
:103BC00081C0113009F46FC0133009F07BC08F89B8
:103BD000882309F46BC0823029F440E86AE081EA66
:103BE00093E006C0813039F440E86AE086E993E06A
:103BF0000E94261B55C0833009F064C00E94E41A5D
:103C00008E010F5F1F4FB8010E94601AF8010190EA
:103C10000020E9F73197BF01601B710B40E0C8013C
:103C2000E7CF973009F44EC0983021F481E08093BB
:103C3000F10044C0993009F041C0837009F042C0DE
:103C4000E5E2F1E081E031E096E32081211109C055
:103C50008EE78093EA001092EA008F898093B40483
:103C60002DC08093E9003093EB0021912093EC006C
:103C70009093ED008F5F873041F7EACF8B8D9C8D5D
:103C80000E94C51C898D811105C08F2D902F0E9427
:103C90006F1906C00E94E41A6F2D702F0E947F1AC0
:103CA000882381F00BC064E873E002C06CEA73E023
:103CB000FB01449150E080E80E94D01C8EEF80937D
:103CC000E80003C081E28093EB006C960FB6F89495
:103CD000DEBF0FBECDBFDF91CF91FF91EF91BF91BE
:103CE000AF919F918F917F916F915F914F913F9194
:103CF0002F911F910F91FF90EF90DF90CF900F9039
:103D00000FBE0F901F9018958093E9008091F200EC
:103D1000882319F08AE38093E80008951F920F9298
:103D20000FB60F9211242F933F934F935F936F938E
:103D30007F938F939F93AF93BF93CF93EF93FF9313
:103D4000C091E1008091E100837F8093E100C3FF97
:103D50000FC01092E90081E08093EB001092EC001C
:103D600082E38093ED001092B40488E08093F00029
:103D7000C2FF15C083E00E94841E8091B604882390
:103D800029F08091B60481508093B6048091B504E7
:103D9000882329F08091B50481508093B504C4FF35
:103DA00010C08091E2008E7E81608093E20080915D
:103DB000E1008F7E8093E1008091B2048E7E80616D
:103DC00011C0C0FF11C08091E2008E7E806180939F
:103DD000E2008091E1008E7E8093E1008091B20448
:103DE0008E7E81608093B204FF91EF91CF91BF915D
:103DF000AF919F918F917F916F915F914F913F9183
:103E00002F910F900FBE0F901F9018951092B40431
:103E10001092B3041092B2040E945B1BE1EEF0E03A
:103E200080818E7E80838DE08093E200559A209A77
:103E300008958091E0008D7F8093E0008091E00004
:103E400081FD08C08091B20480FF04C08091B3045A
:103E500081FD02C080E008950E945B1B8091E0001C
:103E600082608093E00081E008950895991B79E0D5
:103E700004C0991F961708F0961B881F7A95C9F7FA
:103E800080950895AA1BBB1B51E107C0AA1FBB1F49
:103E9000A617B70710F0A61BB70B881F991F5A95D6
:103EA000A9F780959095BC01CD01089597FB072E49
:103EB00016F4009407D077FD09D00E94421F07FC3A
:103EC00005D03EF4909581959F4F0895709561952A
:103ED0007F4F0895EE0FFF1F0590F491E02D099498
:103EE000FB01DC0104C08D910190801921F4415047
:0E3EF0005040C8F7881B990B0895F894FFCF37
:103EFE00C800020105F00901FF3200014000010176
:103F0E000001107F02FFC800FFFFFFFF00E100006D
:103F1E000000000000C18081000000303132339279
:103F2E009366000000002C13E4127513DD120000DE
:103F3E000000BD1475140315661400000000A818C7
:103F4E0022188A18DD126818F6FF00008718000084
:103F5E000000F81844191F192419271937190E19BA
:00000001FF
