:100000000C94D2010C94FA010C94FA010C94FA01AC
:100010000C94FA010C94FA010C94FA010C94FA0174
:100020000C94FA010C94FA010C94F81D0C949B1C8E
:100030000C94FA010C94FA010C94FA010C94FA0154
:100040000C94FA010C94FA010C94FA010C94FA0144
:100050000C945B060C94FA010C94FA010C94711741
:100060000C94FA010C94FA010C94FA010C94FA0124
:100070000C94FA010C94FA010C94FA010C94FA0114
:100080000C94FA010C94FA010C94FA010C94FA0104
:100090000C94FA010C94FA010C94FA010C94FA01F4
:1000A0000C94FA010C94FA010C94FA012708300818
:1000B000300026082F082F0000602B002900350093
:1000C0002B4400001E00140004001D000000E0008E
:1000D0001F001A0016001B000000E10020000800AD
:1000E0000700060000002A00210015000900190081
:1000F00000002B44220017000A0005000000E20067
:100100002E0013D0000013D0000000002D0014D0EA
:10011000000014D00000000023001C000B001100A0
:100120000000E700240018000D00100000002B4420
:1001300025000C000E00360000002C0026001200E6
:100140000F0037000000280027001300330038009C
:100150000000E60000003100340000002B440000E5
:1001600000000000000000002B4400003A000000E6
:10017000000000000000E1003B000000045000000F
:100180000000E0003C0001500250000000004C0064
:100190003D0011500850125000002B443E004250C8
:1001A000415044500000000000000000000000002A
:1001B000000000000000000000000000000000003F
:1001C0003F00500150004A00000000004000510173
:1001D00051004E0000002B444100520152004B00E0
:1001E0000000E70042004F014F004D0000002B00CF
:1001F000430000000000000000002800440045000B
:10020000000000002B44000005010906A1010507BC
:1002100019E029E71500250175019508810295016E
:1002200075088101950575010508190129059102D7
:1002300095017503910195067508150025FF0507C1
:10024000190029FF8100C0050C0901A101850415D1
:100250000026FF0319002AFF03950475108100C0D2
:1002600005010906A1018508050719E029E7150020
:1002700025017501950881020508190129089508CD
:10028000750191020507750495018101190429DDA5
:1002900015002501750195D981027503950181012C
:1002A000C005010902A101850105091901290815E7
:1002B0000025019508750181020501093009310900
:1002C000381581257F750895038106050C0A3802CB
:1002D0001581257F750895018106C005010980A15A
:1002E000018505150026FF00190029FF95017508F5
:1002F0008100C005010902A101050919012908159C
:1003000000250195087501810205010930093116A2
:10031000000026FF7F75109502810209381581259E
:100320007F750895018106C0080B000202020000DB
:100330000904000001020200000524001001052448
:1003400001010104240206052406000107058103BA
:1003500010004009040100020A0000000705020223
:100360004000000705830240000012010002EF0276
:100370000140EDFE07130001010203014572676FA2
:10038000446F7820455A004572676F446F78204566
:100390005A000403090491085D14CE14BC15991683
:1003A0006D17851911241FBECFEFDAE0DEBFCDBF78
:1003B00011E0A0E0B1E0E2EDFDE302C005900D9296
:1003C000A037B107D9F724E0A0E7B1E001C01D9242
:1003D000A73BB207E1F711E0C2EDD1E004C02197DD
:1003E000FE010E94D41ECB3CD107C9F70E94FD013B
:1003F0000C94E71E0C94000008950E9425180E949A
:10040000FC018DEA94E00E94701E0E94C803C0E0C7
:10041000D0E00E94CC032097E1F30E940000F9CFC6
:100420000F931F93622FA801882329F0813059F080
:100430001F910F91089502EB10E023E081E393E018
:100440000E94800CF5CF0CEA10E0F7CFFF920F93DB
:100450001F93CF93DF93CDB7DEB76D970FB6F894A8
:10046000DEBF0FBECDBF8C01F42E8DE1ECEDF3E0CD
:10047000DE01119601900D928A95E1F76093BF031A
:1004800081E080937A0142E869EFC8010E94080484
:100490000E94AC10FF2039F041E869EFC8010E94CA
:1004A00008040E94AC108DE1FE013196AFEBB3E081
:1004B00001900D928A95E1F76D960FB6F894DEBF24
:1004C0000FBECDBFDF91CF911F910F91FF90089587
:1004D0000F931F93CF93DF9380917A01882329F0A4
:1004E00010927A0190E080E04CC0D22FC42F8B0193
:1004F00081E00E94FA048111F5CF8D2F8170D1FF28
:1005000082C04C2F50E0440F551F4C525E4FFA01F1
:10051000811165C04081518129E030E080917701EF
:10052000909178012417350789F540917C0150910D
:100530007D0160917E0170917F0140937101509324
:100540007201609373017093740121E0209376012E
:1005500020E08217930741F0F80180819181909308
:10056000780180937701BECF8091DC03809379017D
:10057000F80180819181909378018093770181E0E7
:1005800090E0DF91CF911F910F91089527E030E027
:1005900024173507A1F420E08217930709F4A2CFAE
:1005A000109277011092780181E08093750160913B
:1005B000DC0341E089E290E00E942602E0CF20E0E7
:1005C00030E08217930709F48DCF41E06091790103
:1005D0000E942602109277011092780183CF208129
:1005E000318189E090E08217930721F480917601B0
:1005F00090E0C7CF87E090E08217930709F072CFB1
:1006000080917501F5CF882309F46CCFEC2FF0E0D1
:10061000EE0FFF1FEC52FE4F2081318189E090E008
:1006200082179307A9F4809177019091780120E0D7
:1006300030E08217930749F041E0609179010E9410
:1006400026021092770110927801109276014ACF1B
:1006500087E090E08217930709F044CF109275016C
:1006600041CF40917C0150917D0160917E0170915C
:100670007F018091710190917201A0917301B091FD
:100680007401481B590B6A0B7B0B80910001909100
:100690000101B0E0A0E084179507A607B707A0F412
:1006A00010927601809177019091780120E030E0FE
:1006B0008217930749F040E0609179010E94260279
:1006C0001092770110927801089590E080E00895EB
:1006D00089E293E00E946C0C90E080E008958DE048
:1006E00093E00E94FE0990E080E0089590E080E0B1
:1006F00008950F931F93CF93DF93EC01162F042FD0
:10070000242F462FBC0189E293E00E94E20B01975F
:10071000E9F0202F412FBE0181E393E00E94330DC9
:100720000197A1F0202F412FBE0180E791E00E94A8
:100730006802019759F0202F412FBE018FE093E00E
:10074000DF91CF911F910F910C940A0B81E090E003
:10075000DF91CF911F910F91089590E080E008956F
:1007600089E293E00E948A0B8FE093E00C942F0BB8
:1007700089E293E00E94810B81E393E00E94E50D02
:1007800080E791E00E9431038FE093E00C942A0B04
:100790008BE791E00C94D0038BE791E00C94F0038D
:1007A000CF9340E855E260E070E080E594E00E947D
:1007B0007F190E94680381E892E00E940B060E9464
:1007C000DD0F0E94EB100E94F5100E941205C0E0A0
:1007D0008C2F0E94B804CF5FC435D1F7CF91089514
:1007E0000E94BB1760937C0170937D0180937E0112
:1007F00090937F010E946F0381E892E00E9432088B
:100800000E94B0030E94AC100E945D100C94B803CB
:10081000EF92FF920F931F93CF93DF9300D0CDB74A
:10082000DEB79A838983062F142F643580F5842FD1
:100830008270F82E41FF0AC040FD08C089819A816C
:10084000009709F05CC0802F0E94B804602F81E8F7
:1008500092E00E947B08882349F010FF47C0F11006
:1008600045C0602F81E892E00E945D0829813A81AD
:1008700080E090E02817390751F4E02FF0E0EE0F08
:10088000FF1FEC52FE4F808191819A838983412F13
:10089000602FCE0101960E947903892B39F5802FB4
:1008A00066E00E94A01E212F492F682FCE010196DD
:1008B0000E947603892BD1F4412F602F89819A8180
:1008C0000E9403067C019A83898380E090E0E81609
:1008D000F90661F08A8186FF2AC087FD07C083FF81
:1008E00019C011FF03C0C7010E94EF100F900F90B5
:1008F000DF91CF911F910F91FF90EF90089546FDEA
:10090000A2CFE62FF0E0EE0FFF1FEC52FE4F9183D7
:1009100080839CCF80FFEACF11FDE8CF10FFE6CFA8
:10092000C7010E94F910C7010E94FE10DFCF812F7E
:10093000817011FF07C061E0811160E0C7010E9472
:100940001B10D4CF882391F217FFD0CFC7010E948C
:100950006D10CCCFE62FF0E094E5899FE00DF11DFE
:100960001124EE0FFF1FE854FF4F859194910895D5
:10097000CF93DF93282F30E0E901CC0FDD1FCC525D
:10098000DE4F20583E4FE0910301F0910401682FA3
:10099000D9018C91099599838883DF91CF9108952E
:1009A000CF92DF92EF92FF92C0907D02D0907E02B4
:1009B000E0907F02F090800280910201815090E0EF
:1009C000282F0097A1F0B701A601082E04C0769544
:1009D0006795579547950A94D2F7019740FFF0CF56
:1009E00020937C02FF90EF90DF90CF9008951092BB
:1009F0007C02F8CF0F931F9340917D0250917E02AD
:100A000060917F02709180028A019B0104C036953B
:100A10002795179507958A95D2F7C80181701F9180
:100A20000F9108950F931F93CF93DF93E0E8F1E0C8
:100A300084E5DF011D928A95E9F710E000E0D02FF0
:100A400004351105D9F0C0917C021C1694F48C2F4A
:100A50000E94FA04882381F0E0910301F0910401DF
:100A60006D2F8C2F0995019639F0F801E058FE4F53
:100A7000C0830F5F1F4FE3CFC150E7CFDF91CF910E
:100A80001F910F9108950F931F9300917D02109174
:100A90007E0220917F0230918002B901A801082EC8
:100AA00004C076956795579547950A94D2F740FF0D
:100AB00028C041E050E060E070E0082E04C0440F20
:100AC000551F661F771F0A94D2F740955095609581
:100AD0007095402351236223732340937D025093EA
:100AE0007E0260937F027093800290917C02981343
:100AF00002C00E94D0040E9412051F910F910C9415
:100B0000AD031F910F910895CF9390910201891722
:100B100080F5C82F0E94FA0481112BC081E090E07B
:100B2000A0E0B0E00C2E04C0880F991FAA1FBB1FC5
:100B30000A94D2F740917D0250917E0260917F022B
:100B400070918002842B952BA62BB72B80937D026E
:100B500090937E02A0937F02B093800280917C02EA
:100B60008C1710F40E94D0040E941205CF910C94AF
:100B7000AD03CF91089580917C028F5F0C94840522
:100B800080917C020C944305CF93C82F862F8270EE
:100B9000CA3230F1CA52C13251F0C23281F46170AE
:100BA000882351F161112AC0CF910C94BB0561706B
:100BB000882331F1611122C0CF910C94C0058823A4
:100BC00049F08C2F0E94FA04811118C08C2FCF910C
:100BD0000C94840560FF12C08C2FCF910C944305B8
:100BE000882361F060FD0AC08C2F0E94FA048823DC
:100BF00069F3CC2359F3F0CF6111DECFCF91089583
:100C00006623E1F3D1CF943429F4642F0E94C40504
:100C100080E090E008950F931F93CF93DF930FB67A
:100C2000F894A8958091600088618093600010928C
:100C300060000FBE64E670E080E090E00E94EC1778
:100C400000E810E089EAF8018083C1E8D0E089E09B
:100C5000888324982C983F988AB18F7C8AB96E98A3
:100C6000479A8BB180638BB9769A80E093E00E94BB
:100C7000D3088FE090E09093890080938800909350
:100C80008B0080938A0090938D0080938C0080E18C
:100C90008883F801108280E295E390938700809327
:100CA000860081E1888381E080936F00DF91CF919E
:100CB0001F910F9108951F920F920FB60F9211245A
:100CC0008F9381E0809305018F910F900FBE0F905D
:100CD0001F901895CF92DF92EF92FF920F931F9380
:100CE000CF93DF931092050180E093E00E94730997
:100CF000C2E8D2E084EEC82E82E0D82EF12CE12C9E
:100D0000AEC08150888312E002E020E090E089814B
:100D1000882321F081508983122F092F8A81811124
:100D2000C7C01460012F8B818111C8C01860012FCA
:100D30008C818111BAC01061012F8D818111B2C0E7
:100D40001062012FB70180E093E00E943309F601A1
:100D50009081109519238023812B982790FF03C041
:100D600020910601288391FF03C020910601298369
:100D700092FF03C0209106012A8393FF03C02091B4
:100D800006012B8394FF03C0209106012C8395FF5D
:100D900003C0909106019D83F60181936F01B70115
:100DA000695F7F4F8AA5882309F477C081508AA79D
:100DB00012E002E020E090E08BA5882321F0815032
:100DC0008BA7122F092F8CA5811164C01460012FED
:100DD0008DA581115CC01860012F8EA5811154C0B2
:100DE0001061012F8FA581114CC01062012F80E08E
:100DF00093E00E943309F601968110951923802310
:100E0000812B982790FF03C0209106012AA791FF0C
:100E100003C0209106012BA792FF03C02091060179
:100E20002CA793FF03C0209106012DA794FF03C0B8
:100E3000209106012EA795FF03C0909106019FA760
:100E4000F6018683B70180E093E00E941909FFEF65
:100E5000EF1AFF0A269687E0E816F10491F1B70130
:100E600080E093E00E94F008B70180E093E00E94E8
:100E700019098881811145CF13E003E021E091E059
:100E800046CF81508FA7B3CF81508EA7ABCF815073
:100E90008DA7A3CF81508CA79BCF13E003E021E067
:100EA00091E08ACF81508D834DCF81508C8345CF87
:100EB00081508A838B81882309F438CF81508B83BA
:100EC00037CFDF91CF911F910F91FF90EF90DF907F
:100ED000CF900895CF92DF92EF92FF921F93CF931E
:100EE000DF93E2EFEE2EE2E0FE2EC4EED2E0F0E081
:100EF000CF2EF3E0DF2E15E0F70180816881262FE9
:100F000030E0A901440F551F4270982F9170492B72
:100F100009F09CC081FB442740F9522F5270452BA9
:100F200009F088C0A9015595479555954795440FF7
:100F3000551F427082FB552750F9452B09F06EC0B2
:100F4000A901559547955595479555954795440F52
:100F5000551F427083FB552750F9452B09F052C0AD
:100F6000A90155954795559547955595479555959B
:100F70004795440F551F427084FB552750F9452B68
:100F8000A9F5A901559547955595479555954795C7
:100F90005595479555954795440F551F427085FBCC
:100FA000882780F9482B89F4F70161937F01219606
:100FB0001A5FCE16DF0609F09FCFDF91CF911F9108
:100FC000FF90EF90DF90CF900895612F80E090E048
:100FD0000E9408048991F70181937F011A5FF0E074
:100FE000EF16F3E0FF0609F087CFE7CF6FEF610F51
:100FF00080E090E00E940804F70180816881262F3C
:1010000030E0BFCF6EEF610F80E090E00E940804F7
:10101000F70180816881262F30E0A2CF6DEF610F4C
:1010200080E090E00E940804F70180816881262F0B
:1010300030E086CF6CEF610F80E090E00E94080402
:10104000F70180816881262F30E06CCF6BEF610F54
:1010500080E090E00E940804F70180816881262FDB
:1010600030E058CFCF93DF93EC01809105018823C6
:1010700029F010920501CE010E946A06CE01DF918F
:10108000CF910C946A07862F6435B0F466E00E9415
:10109000A01E292FE82FF0E0EA52FD4F81E090E0FA
:1010A000A0E0B0E004C0880F991FAA1FBB1F2A95BB
:1010B000D2F72081822B80830895862F6435D0F467
:1010C00066E00E94A01E292FE82FF0E0EA52FD4FB3
:1010D00081E090E0A0E0B0E004C0880F991FAA1F53
:1010E000BB1F2A95D2F780959095A095B095208149
:1010F000822380830895862F643588F466E00E94F9
:10110000A01E292FE82FF0E0EA52FD4F808190E0E9
:1011100002C0959587952A95E2F78170089580E041
:10112000089580E2809300030895CF930E94B2094E
:1011300068EE73E080E090E00E94EC1780E40E948B
:10114000B809C82F81112AC080E00E94E209C82F87
:10115000811124C080E00E94E209C82F81111EC0C5
:101160008FE30E94E209C82F811118C00E94DA099A
:1011700080E40E94B809C82F811110C08CE00E9441
:10118000E209C82F81110AC080E00E94E209C82F3D
:10119000811104C08FE30E94E209C82F0E94DA097E
:1011A0008C2FCF910895CF93DF93EC010E94950887
:1011B000888380B38C7080BB81B3836F81BB84B123
:1011C0008F6084B985B18F6085B98AB18C608AB926
:1011D0008BB18C608BB93E9A469ADF91CF9108957E
:1011E0001F93CF93DF93FC012081222321F0DF9115
:1011F000CF911F910895162FEC0180E40E94B80949
:101200008883882329F0DF91CF911F910C94DA090C
:1012100082E10E94E20988838111F5CF81E090E0AC
:1012200001C0880F1A95EAF780950E94E209888329
:10123000EACFFB01E55DFE4F8081E82FF0E0F595F8
:10124000E795F595E795F595E795F595E79592A1DD
:101250008F7021E030E001C0220F8A95EAF7892FD4
:10126000822782A308950F931F93CF936730710550
:1012700054F4FC01C081CC23A1F0C0E08C2FCF91AD
:101280001F910F9108958FB1CFB1C695C695CC73BC
:101290008370C82BC095CF738C2FCF911F910F9166
:1012A00008958C0180E40E94B809F80180838823A6
:1012B00039F00E94DA098C2FCF911F910F91089578
:1012C00083E10E94E209F80180838111F2CF81E479
:1012D0000E94B809F80180838111EBCF0E94F309C5
:1012E000C82FC095E6CF0F931F93CF93DF93EC01E8
:1012F0008091010381110DC00E94BB176093090307
:1013000070930A0380930B0390930C0381E0809306
:1013100001038881882309F10E94BB17009109030A
:1013200010910A0320910B0330910C03601B710B89
:10133000820B930B683873418105910570F0CE01E3
:101340000E94950888830E94BB17609309037093DD
:101350000A0380930B0390930C03DF91CF911F91AD
:101360000F9108951092B9008AE08093B800089513
:1013700094EA9093BC009091BC0097FFFCCF9091B1
:10138000B900987F983021F0903111F081E00895F4
:101390008093BB0084E88093BC008091BC0087FFF1
:1013A000FCCF8091B900887F883111F0803471F7CB
:1013B00080E0089584E98093BC008091BC0084FDA6
:1013C000FCCF08958093BB0084E88093BC0080919B
:1013D000BC0087FFFCCF9091B900987F81E09832E4
:1013E00009F480E0089584E88093BC008091BC00FB
:1013F00087FFFCCF8091BB0008950895809107017D
:101400009091B20490FF13C081110BC080910E0324
:1014100081110AC081E080930E0390E080E00E9479
:10142000FD0990E080E0089581E090E0F8CF81111F
:101430001092070180910E03882399F310920E03F6
:1014400082E090E0ECCFCF93C42F462F40686FEF3F
:101450000E940804C11105C00E94AC10CF910C94E9
:101460004C11CF9108950F931F93CF93DF93EC010D
:10147000062F142F61FF03C062E00E94230A00FFC1
:1014800009C0412F61E0CE01DF91CF911F910F91F3
:101490000C94230ADF91CF911F910F910895362F5D
:1014A000642FFC018491422F932F0C94330A8F9266
:1014B0009F92AF92BF92EF92FF920F931F93CF93A1
:1014C000DF93CB01009709F49AC0F12CE12CEC01D9
:1014D0002196FC012491EFEFE20FED3008F08FC070
:1014E000F0E0EB58F54F0C94D41EBE0AC30ACF0AA5
:1014F000D90AE00AE70AF10AF70AAF0AFD0AB90AAF
:10150000820A9A0A8E2C912CB12CA12CFE010491F6
:1015100031962296149140E063E0812F902F0E9433
:10152000330AC501B4010E94EC170111EFCF11116C
:10153000EDCF17C08E2C912CB12CA12C2196FE0141
:101540003197149140E063E0812F90E00E94330ACC
:10155000C501B4010E94EC171111F0CF02C0FF24A5
:10156000F3946E2D70E090E080E00E94EC17CE01C5
:10157000AECF0E94AC100E944C11F3CF0296FE0138
:10158000E490EC01EECF8C010E5F1F4FFE016491E1
:1015900070E090E080E00E94EC17E801E2CFFE01ED
:1015A0006491EC0123962F2D42E002960E944F0A8F
:1015B000D8CFFE016491EC0123962F2D41E0F5CFA9
:1015C000FE016491EC01239620E043E0EECF8C0114
:1015D0000E5F1F4F2F2D42E060E0CE010E944F0AA8
:1015E000DCCF8C010E5F1F4F2F2D41E0F5CF8C011A
:1015F0000E5F1F4F20E043E0EFCFF12CB2CFDF9121
:10160000CF911F910F91FF90EF90BF90AF909F905F
:101610008F900895DB0111968C918036C1F48091F2
:101620001003883088F4A82FB0E0FD01EE0FFF1FF3
:10163000EA0FFB1FEF5EFC4FDB019C91908341831F
:1016400022838F5F8093100381E090E0089590E003
:1016500080E008951092100390E080E00895CF9309
:10166000C0E080911003C817B8F48C2F90E0FC0103
:10167000EE0FFF1FE80FF91FEF5EFC4F8181809393
:101680000801628180810E946503BC018FE093E0C4
:101690000E94570ACF5FE5CF90E080E0CF91089598
:1016A00020917C0130917D0140912A0350912B03C0
:1016B000B901641B750BAB016091090170910A01BE
:1016C00064177507E8F430932B0320932A0320E076
:1016D00040910B0180FD10C040910B01419520E02D
:1016E00081FD0AC020910B01219582FD04C083FF7A
:1016F00007C020910B0140E060E080E00C940611EF
:1017000008950E944C110E9448111092300390E0FD
:1017100080E0089590913003911105C01092580314
:1017200090E080E0089520917C0130917D0140910E
:101730002E0350912F03B901641B750BAB0160910F
:101740000F01709110016417750750F730932F0344
:1017500020932E0340912C0350912D03B901641B5B
:10176000750BAB0160910C0170910D016417750749
:1017700090F48091580360910E014FEF50E0461BAA
:101780005109841715061CF4860F80935803309373
:101790002D0320932C0360911101619590FF60E06F
:1017A00091FF03C080911101680F80911101819513
:1017B00092FF80E093FF03C090911101890F0E9476
:1017C000090FAECFCF93FB018181803509F06CC04A
:1017D0008081382F3072922F927086FF17C031119E
:1017E00051C0C82FCF7B2170992351F0211102C025
:1017F0000E94610E8C2F0E94390E81E090E056C04D
:101800002223D9F38C2F0E943B0EF7CF31113AC01F
:101810002170992309F44CC0211116C020917C013C
:1018200030917D0130932F0320932E0330932D03AD
:1018300020932C034091090150910A01241B350B80
:1018400030932B0320932A0384FF03C00E94500B84
:10185000D4CF20913003822B80933003CECF982FAA
:101860009C7049F084FF09C021E040E060E080E026
:101870000E941111C2CF20E0F8CF20E040E060E0EC
:1018800081E0F6CF992309F4B8CF20FDB6CF282FF9
:1018900030E0C901880F991F26FB222720F98E719D
:1018A000822B0E94670EA9CF90E080E0CF9108952F
:1018B000222309F4A2CF80952091300382238093C4
:1018C00030038081982F937051F220E041E084FD35
:1018D000CDCF40E061E0CBCF0E94350E90E080E0BC
:1018E00008951092320310923303E82FF0E0EE0FC8
:1018F000FF1FEC5CFC4F80818C7F846080830895A7
:101900000F931F93261708F4622FE62FF0E0E150A3
:10191000F048EE0FFF1FE00FF11F059114914430C6
:10192000510548F44230510568F44130510591F0B9
:101930001F910F91089544305105D1F70E94AC10CA
:1019400041E801C042E860911201C8011F910F9166
:101950000C94080443E8F7CF0F931F93582F862F5A
:1019600066E00E94A01E8901242F492F682F852F31
:101970000E9410021F910F9108950F931F93CF9310
:10198000DF93082F109132031351C12FD0E0CC0FF9
:10199000DD1FCC5CDC4F22E030E049816091120118
:1019A000812F0E94AC0C8881826088831092320360
:1019B00010923303602F81E892E00E9443080E9456
:1019C000AC100E945D10888180FD07C0812FDF91DF
:1019D000CF911F910F910C94710CDF91CF911F91BA
:1019E0000F9108951F93CF93DF93109132031351FA
:1019F000C12FD0E0CC0FDD1FCC5CDC4F23E030E00A
:101A0000498160911201812F0E94AC0C8881826013
:101A1000888380FD0AC01092320310923303812F15
:101A2000DF91CF911F910C94710CDF91CF911F9199
:101A30000895809132038351E82FF0E0EE0FFF1FED
:101A4000EC5CFC4F41814F5F418320917C013091E0
:101A50007D01309355032093540330E020E06091E2
:101A600012010C94AC0CEF92FF920F931F93CF9343
:101A7000DF9327FF09C090E080E0DF91CF911F91B5
:101A80000F91FF90EF900895C22FD42F7B01FB019F
:101A9000808191812091320330913303AC01435115
:101AA000504D40315105D8F080E090E08217930707
:101AB00011F3C1FF05C0C0FD03C08D2F0E94BD0CF6
:101AC0006D2F81E892E00E947B088823A1F26D2FA0
:101AD00081E892E00E945D0881E090E0CECF1DEEAB
:101AE000180F0C2F0170C0FF13C05C2F5270C1FD86
:101AF00009C0E12FF0E0EE0FFF1FEC5CFC4F4081CE
:101B00004E7F40838217930731F451113AC0E4CFDE
:101B100082179307B1F140E050E042175307D1F428
:101B2000E12FF0E0EE0FFF1FEC5CFC4F208121FF66
:101B300008C0002389F2C1FDCFCF812F0E94710C14
:101B4000CBCF9093330380933203D09312010E9442
:101B5000190DC2CF8C2F8270002369F08111BCCF88
:101B6000E12FF0E0EE0FFF1FEC5CFC4F818188233A
:101B700009F4B2CFE2CF882309F4AECF8D2F0E94B3
:101B8000BD0CF701808191819093330380933203E0
:101B9000D0931201E12FF0E0EE0FFF1FDF01AC5CEC
:101BA000BC4F8C9181608C93C1FF02C0002379F2FD
:101BB000EC5CFC4F808181FF8FCF21E030E04181E0
:101BC0006D2F812F0E94AC0C87CFEF92FF920F9365
:101BD0001F93CF93DF9394E3E92E93E0F92ED0E0A7
:101BE000C0E08E01000F111F0C5C1C4FF8018081BA
:101BF00082FF0FC024E030E0F701418160911201C3
:101C00008C2F0E94AC0CF7011182F80180818B7F30
:101C100080832196F2E0EF0EF11CC031D10509F767
:101C2000209132033091330380E090E02817390788
:101C300099F080917C0190917D0120915403309125
:101C40005503821B930B2091130130911401281727
:101C5000390710F40E94F20C90E080E0DF91CF9100
:101C60001F910F91FF90EF9008950E9402110C9424
:101C700050110C943E110E94431110925903089583
:101C800056954795640F751F3695279540E0820F4E
:101C9000931F0C945C1110925B0310925A031092E4
:101CA0005D0310925C038FEF9FE790936103809335
:101CB000600390935F0380935E0381E080935903F8
:101CC00008958091590381110C944B0E08950F9340
:101CD0001F93CF93C82F80915903811102C00E9496
:101CE0004B0EC0FF06C010925903CF911F910F9168
:101CF0000895E09117010E2F10E0809160039091FC
:101D00006103B8010E94AC1E9B0170936103609354
:101D1000600380915E0390915F03B8010E94AC1E46
:101D2000AB0170935F0360935E036C2F6470E0916E
:101D30005C03F0915D0380915A0390915B037C2FCB
:101D40007670763091F4820F931F90935B038093AB
:101D50005A03BA016E0F7F1F70935D0360935C039B
:101D6000CF911F910F910C94400E662349F1D80139
:101D70001197A49FB001A59F700DB49F700D112401
:101D8000E60FF71FF0935D03E0935C03C4FF1DC0F3
:101D900001501109029FB001039F700D129F700D39
:101DA0001124860F971F90935B0380935A036091D1
:101DB0005C0370915D0380915A0390915B03D0CFD7
:101DC000C1FDE4CFE40FF51FDDCFC3FDF0CF820FDF
:101DD000931FE9CF482F50E087FD0AC0889FC001BC
:101DE0001124880F892F881F990B91958F5F089573
:101DF00020E031E0241B350B229FC001239F900D72
:101E0000900D1124880F892F881F990B919580952B
:101E10000895EF92FF920F931F93CF93DF93182FA4
:101E2000062F80911601C82FD0E0112309F492C02B
:101E3000662389F123E6829FC00111246CE870E0DB
:101E40000E94C01E6115710509F0EB01212F012EC2
:101E5000000C330B43E61402C00111246CE870E05F
:101E60000E94C01E6115710509F09B01122F202FE1
:101E7000002E000C330B43E60402C00111246CE871
:101E800070E00E94C01E6115710509F09B01022FD0
:101E9000112309F45FC0809158030E94EA0E20913B
:101EA0005703382F1303C0011124820F911D27FD02
:101EB0009A957E01C817D90744F0EE24FF24EC1A46
:101EC000FD0AE816F9060CF47C01002309F445C06C
:101ED000809158030E94EA0E20915603482F040374
:101EE000C0011124820F911D27FD9A95C817D907AB
:101EF0003CF0D195C195D109C817D9070CF4EC0174
:101F0000109259032091150130E0CE01B9010E94D1
:101F1000C01EE62FC701B9010E94C01E862F20E017
:101F200040E06E2F0E9406112091150130E0C7019C
:101F3000B9010E94C01E80935703CE01B9010E94CF
:101F4000C01E80935603DF91CF911F910F91FF9098
:101F5000EF900895F12CE12CB8CFD0E0C0E0D0CFC5
:101F6000CF93DF9300D000D000D0CDB7DEB7DC0137
:101F700013967C936E93129715965C934E931497D9
:101F800016963C91169739837B836A835D834C83D5
:101F90002E83ED91FC910190F081E02D46E050E020
:101FA000BE016F5F7F4F099526960FB6F894DEBF8E
:101FB0000FBECDBFDF91CF9108958FEB93E00E94CC
:101FC000B21582E893E00C944D14CF93C82F82E8A9
:101FD00093E00E94A8136C2F811105C082E893E062
:101FE000CF910C94E7138FEB93E0CF910C945C1599
:101FF000CF93C82F83FF04C081EE90E00E94E50FCD
:10200000C0FF04C080EE90E00E94E50FC1FF04C055
:1020100082EE90E00E94E50FC2FF04C086EE90E0E1
:102020000E94E50FC4FF05C083EE90E0CF910C94B1
:10203000E50FCF910895CF93DF93D82FC92F907CD0
:10204000662399F080916203811102C010926403AB
:10205000809164038C2B80936403911104C080E20F
:102060008D0F883020F0D093620391110DC080E273
:102070008D0F883048F48C2F0E94F80F8D2F9C2FE5
:10208000DF91CF910C94E50F809163038C2B8093AB
:102090006303F4CFCF93C82F82E893E00E94A81384
:1020A0006C2F811105C082E893E0CF910C940E143F
:1020B0008FEB93E0CF910C94831582E893E00E941C
:1020C000461410926203109263038FEB93E00E9418
:1020D000AC1581EA93E00C949314CF93DF93D82F3F
:1020E000C92F80916403892780936403892F807CA2
:1020F00021F480E28D0F883058F0809162038D13B7
:1021000002C010926203809163038C278093630363
:10211000C3FF04C081EE90E00E944A10C0FF04C0DB
:1021200080EE90E00E944A10C1FF04C082EE90E071
:102130000E944A10C2FF04C086EE90E00E944A103E
:10214000C4FF04C083EE90E00E944A108D2F9C2FA4
:10215000DF91CF910C944A109091630380916403B6
:1021600089230E94F80F82E893E00E94A8136091EF
:102170006203811116C0662381F082E893E00E9419
:102180000E1482E893E00E94AB136091620382E830
:1021900093E00E94E7131092620382E893E00C94AC
:1021A000AB13662381F08FEB93E00E9483158FEBD6
:1021B00093E00E94FC14609162038FEB93E00E9415
:1021C0005C15109262038FEB93E00E94FC1481EA8D
:1021D00093E00C94A61481EA93E00C94CC14BC0117
:1021E000737081EA93E00C947E1484E294E00C9482
:1021F0007D16682F84E294E00C94811684E294E0CA
:102200000C947F1687E094E00C9419160F93022F1C
:10221000242F462F682F87E094E00E94C0150F916D
:1022200008950F93CF93DF9300D000D01F92CDB7C6
:10223000DEB7522F95E0E7E0F4E0DE011196019061
:102240000D929A95E1F79A813B812C810D81811144
:1022500090E0611130E0411120E0511100E0432F86
:10226000692F87E094E00E94C0150F900F900F90A7
:102270000F900F90DF91CF910F910895682F87E015
:1022800094E00C94CE15682F87E094E00C94D3155D
:1022900087E094E00C94C81587E094E00C94E7156F
:1022A000E3E3F4E0108A468557856485758520E070
:1022B0008DE394E00C94B00F242FAB01BC018DE3AF
:1022C00094E00C94B00FFB018BE6808382E681835F
:1022D00089E682838FE6838380E3848381E3858339
:1022E00086E00895CF93DF93CDB7DEB769970FB639
:1022F000F894DEBF0FBECDBFFC01DB018C918F5F78
:102300008C939E012D5F3F4F8DE0D9011D928A95E0
:10231000E9F729E0298384E08A8391E09D8383E0C3
:102320008E832A8721E22B879C879D879F8722E2C5
:10233000288B27E02B8B25E02C8B8E8B20E430E044
:10234000388F2F8B998F82818B8395858685998B8A
:102350008A8B838180688D8B49E150E0BE016F5F7D
:102360007F4F80E00E944A1C69960FB6F894DEBF4A
:102370000FBECDBFDF91CF910895EF92FF920F93E3
:102380001F93CF93DF93FB012081213871F52381C7
:10239000223259F5DC0112964C9124813581421785
:1023A000130619F5EC010B851C85F12CE12C0115A8
:1023B000110589F0F801448155816281738180E8BB
:1023C0000E944A1C8F3F980749F0E80EF91ED80179
:1023D0000D911C91ECCF81E08F87C701DF91CF91E8
:1023E0001F910F91FF90EF90089590E080E0F6CF5D
:1023F000CF93DF93EC01DB012A8114968D919C91A0
:1024000015972817190659F411968C9111979C91DC
:10241000913A39F4982F9D7F81E0913051F080E01E
:1024200008C09132E1F78B3039F412968C918F8786
:1024300081E0DF91CF9108958A3021F412968C913A
:10244000888BF6CF893059F716968D919C91823002
:10245000910539F462E070E0CE0141960E94701C53
:10246000DECF0197E1F661E070E0CE0142960E9476
:10247000701C198AD4CFFC01A385B485109771F420
:102480007487638785859685DB0114962D913C9131
:10249000820F931F968785870895DC018D919C910B
:1024A00011970097D1F76D937C93ECCFAF92BF92C9
:1024B000CF92DF92EF92FF920F931F93CF93DF9310
:1024C0001F92CDB7DEB77C0169836A01590141E0F3
:1024D00050E0BE016F5F7F4FFC0183810E94991B1A
:1024E0008C0197FD0BC0F7018381A501B6018064C3
:1024F0000E94991B080F191F97FD8C01C8010F90AE
:10250000DF91CF911F910F91FF90EF90DF90CF90CF
:10251000BF90AF900895CF92DF92EF92FF921F93FA
:10252000CF93DF93162F7A0169010E945612EC01B6
:10253000E0918003F0918103309729F09C01A6017E
:10254000B701812F0995CE01DF91CF911F91FF90A7
:10255000EF90DF90CF900895CF93DF93EC0181E06F
:102560008C838D839E01265F3F4F3F832E83198688
:10257000188626E331E0398328831C861B861E8655
:102580001D868F87888B198A1A8A81EC8A870E9418
:10259000621ABE01DF91CF910C941E1A80916503DF
:1025A000811107C08DE693E00E94AC1281E0809318
:1025B00065038DE693E00895FC0182818F5BFB014A
:1025C000808381E00895CF93DF93CDB7DEB769971D
:1025D0000FB6F894DEBF0FBECDBFFC01DB019C91AE
:1025E0009F5F9C939E012D5F3F4F81E1D9011D921A
:1025F0008A95E9F729E0298384E08A8391E09D8325
:1026000083E08E839F8398872A8721E22B879C878C
:102610009D879F8722E2288B2FE3298B27E02B8B36
:1026200025E02C8B8E8B20E430E0388F2F8B998F18
:1026300082818B83838180688D8B49E150E0BE016C
:102640006F5F7F4F80E00E944A1C69960FB6F89436
:10265000DEBF0FBECDBFDF91CF910895FC01DB013E
:102660008C918138A9F413968C911397823281F45E
:10267000228114968D919C912817190649F4828520
:10268000848F4FE350E068E072E080E80C944A1CCD
:1026900090E080E00895FC01DB01228114968D9189
:1026A0009C9115972817190681F511968C91119711
:1026B0009C91913A69F4813029F0833029F4848D1A
:1026C0008093F10081E008958230F9F4858DF8CF90
:1026D0009132D9F48B3021F412968C91848FF2CF01
:1026E0008A3011F4158EEECF893079F4CF01169629
:1026F0002D913C91179713964C91423041F461E033
:1027000070E04E962130310551F080E0089541305F
:10271000E1F728303105C9F768E070E00B960E94B8
:10272000701CD0CFFC0181E0848385839F01255EEE
:102730003F4F378326831186108622E431E03183B0
:1027400020838287848F858F168E81EC838F0895F6
:10275000FC01848D0895EF92FF920F931F93CF9306
:10276000DF938C01EC012B967C0183E1E80EF11CD8
:1027700048E050E0BE01C7010E94DA1E892B21F11A
:10278000F801838148E050E0BE0180640E94991BFB
:102790008C01E0918003F0918103309731F09C012E
:1027A00048E050E0BE0182E0099588E0FE01D701D3
:1027B00001900D928A95E1F7C801DF91CF911F91A9
:1027C0000F91FF90EF9008950FEF1FEFF5CFFC01F1
:1027D00080E2860F883070F4605E770B21E030E095
:1027E00001C0220F6A95EAF78385822B838781E0F7
:1027F00090E00895DF011D9690E080E02D9126176E
:10280000B1F3211104C0E80FF91F6587F0CF0196DD
:102810008630910599F790E080E00895CF93DF939B
:1028200020E2260F283090F4605E770B21E030E044
:1028300001C0220F6A95EAF72095FC013385232316
:10284000238781E090E0DF91CF910895DC011D9610
:102850009C012D5E3F4FFD014191461303C0EF01E6
:1028600021971882E217F307B9F720E03D9133234F
:1028700049F0EC01C20FD11D4D853D87ED01219737
:1028800048832F5FAE17BF0789F7DBCF0B9628E091
:10289000FC0111922A95E9F70895CF93DF93EC019B
:1028A0000E94621ABE010E941E1ACE010E944614A6
:1028B000CE01DF91CF910C94AB1382E893E00C949E
:1028C00092138091B103811113C01092BA03109238
:1028D000B90387E492E09093BC038093BB0389E142
:1028E00090E09093BE038093BD0381E08093B10399
:1028F0000E94CE1269EB73E00C943B12FC0130E0B5
:1029000020E041915191452B41F4220F331F280FB4
:10291000391FF9017183608308952F5F3F4F243081
:10292000310579F7089528E0FC0111922A95E9F71D
:102930000895CF93DF93EC010E94CE1228E030E09F
:10294000AE0164E0DF91CF910C948B120F931F9333
:10295000CF93DF93EC018C01085F1F4F48E050E0FC
:10296000BC01C8010E94DA1E892B51F0CE010E94E1
:10297000991488E0FE01D80101900D928A95E1F743
:10298000DF91CF911F910F91089528E0FC011192E2
:102990002A95E9F70C94A6140C94C51481EA93E0E7
:1029A0000C9461148091F903811113C010920204F8
:1029B0001092010480E692E0909304048093030453
:1029C00081E490E0909306048093050481E0809375
:1029D000F9030E94CE1261E074E00C943B12CF9395
:1029E000DF93EC010E94CE122DE130E0AE0168E0F1
:1029F000DF91CF910C948B12EF92FF920F931F9364
:102A0000CF93DF93EC017C018DE1E80EF11C4DE1E9
:102A100050E0BE01C7010E94DA1E892B09F449C0AB
:102A20000D8D1881802F8095812349F14CE150E074
:102A3000BE016F5F7F4FCE014E960E94DA1E892B3A
:102A4000F1F01D8F0E94CE122DE130E0A70168E069
:102A50000E948B120D8FCE010E94EF1418161906DA
:102A60003CF42DE1FE01D70101900D922A95E1F78A
:102A7000DF91CF911F910F91FF90EF900895812FDB
:102A80008095802341F34CE150E0BE016F5F7F4FA2
:102A9000CE014E960E94DA1E892BE9F208830E942D
:102AA000CE122DE130E0AE0168E00E948B12188357
:102AB000D2CF8FEF9FEFDCCF6E3DA0F4E62FE695EF
:102AC000E695E695E80FF92FF11D677021E030E0FB
:102AD00001C0220F6A95EAF78181822B818381E010
:102AE00090E00895605E683058F441E050E001C025
:102AF000440F6A95EAF7FC012081242B2083EFCF55
:102B000090E080E008956E3DA8F4E62FE695E69506
:102B1000E695E80FF92FF11D677021E030E001C064
:102B2000220F6A95EAF7209581812823218381E08D
:102B300090E00895605E683060F421E030E001C00C
:102B4000220F6A95EAF72095FC0130812323208328
:102B5000EECF90E080E008952DE1FC0111922A95DE
:102B6000E9F70895CF93DF93EC010E94AC15CE01F5
:102B7000DF91CF910C94EF148FEB93E00C94D2146F
:102B80000F93FC0161834283238304830F91089593
:102B900025E0FC0111922A95E9F70895FC01908146
:102BA000692B60830895FC01962F909560816923BD
:102BB00060830895CF93DF93EC010E94CE1225E04D
:102BC00030E0AE0161E0DF91CF910C948B120F9356
:102BD0001F93CF93DF93EC018C010B5F1F4F45E0F8
:102BE00050E0BC01C8010E94DA1E892B49F445E07F
:102BF00050E061E174E0CE010E94DA1E892B51F0B1
:102C0000CE010E94DA1585E0FE01D80101900D92F7
:102C10008A95E1F7DF91CF911F910F910895CF939E
:102C2000DF93EC010E94C815CE01DF91CF910C9487
:102C3000E715CF93DF93EC0180911604811113C047
:102C400010921F0410921E0481EA92E090932104D6
:102C5000809320048AE390E09093230480932204DD
:102C600081E0809316040E94CE126EE174E00E940F
:102C70003B12CE01DF91CF910C940F168091250469
:102C8000811113C010922E0410922D048BED92E04E
:102C90009093300480932F0488E190E09093320465
:102CA0008093310481E0809325040E94CE126DE26E
:102CB00074E00C943B120F931F93CF93DF93EB01BF
:102CC0008A010E94CE129801AE0165E0DF91CF919A
:102CD0001F910F910C948B12CF93DF931F92CDB75E
:102CE000DEB7198241E050E0BE016F5F7F4F0E9466
:102CF0005B160F90DF91CF9108950C946C160C9495
:102D00006C16CF93DF931F92CDB7DEB7698363381C
:102D100041F48DEA94E00E94831E0F90DF91CF91E1
:102D2000089541E050E0BE016F5F7F4F0E945B1647
:102D3000F4CF84E294E00C943E16CF93DF93CDB7AA
:102D4000DEB769970FB6F894DEBF0FBECDBFFC01AA
:102D5000DB019C919F5F9C939E012D5F3F4F81E122
:102D6000D9011D928A95E9F729E0298384E08A83B5
:102D700091E09D8383E08E832A8721E22B879C87C5
:102D80009D879F8722E2288B25E3298B27E02B8BC9
:102D900025E02C8B8E8B20E430E0388F2F8B998FA1
:102DA00082818B83838180688D8B49E150E0BE01F5
:102DB0006F5F7F4F80E00E944A1C69960FB6F894BF
:102DC000DEBF0FBECDBFDF91CF9108950F931F934C
:102DD000CF93DF93EB018A01FC01838180640E9421
:102DE000991BE0918003F0918103309749F09C0199
:102DF000A801BE0187E0DF91CF911F910F91099447
:102E0000DF91CF911F910F9108950A970C94E616C8
:102E1000DC01FB0112962C91129784819581281771
:102E2000190641F491818081813A31F49D7F81E0DE
:102E3000913009F080E008958132E1F79B3029F468
:102E4000828152968C9381E008959A3099F782811D
:102E500053968C93F8CFFB0120812138B1F4238164
:102E6000223299F4DC0112964C911297248135811B
:102E70004217130651F421E052962C9345E350E09B
:102E800063EF72E080E80C944A1C90E080E00895C3
:102E9000CF93DF93EC0181E08C838D839E012F5EC5
:102EA0003F4F3F832E83198618861D861C861F86FA
:102EB0001E86188A2EE431E0398328832CE531E020
:102EC0003B872A878A8B8B8B81EC898B0E94621AC5
:102ED000BE01DF91CF910C941E1A83E394E00C9411
:102EE00048171F920F920FB60F9211242F933F9302
:102EF0008F939F93AF93BF9380914804909149041F
:102F0000A0914A04B0914B043091470423E0230F71
:102F10002D3758F50196A11DB11D209347048093CC
:102F2000480490934904A0934A04B0934B048091C1
:102F30004C0490914D04A0914E04B0914F04019621
:102F4000A11DB11D80934C0490934D04A0934E0499
:102F5000B0934F04BF91AF919F918F913F912F916B
:102F60000F900FBE0F901F90189526E8230F029622
:102F7000A11DB11DD2CF2FB7F89460914804709174
:102F8000490480914A0490914B042FBF08953FB7A4
:102F9000F89480914C0490914D04A0914E04B0910E
:102FA0004F0426B5A89B05C02F3F19F00196A11D1F
:102FB000B11D3FBFBA2FA92F982F8827BC01CD0183
:102FC000620F711D811D911D42E0660F771F881FE2
:102FD000991F4A95D1F708958F929F92AF92BF9211
:102FE000CF92DF92EF92FF926B017C010E94C71794
:102FF0004B015C01C114D104E104F104E9F00E9429
:103000009F1E0E94C717681979098A099B09683EA3
:1030100073408105910570F321E0C21AD108E108DF
:10302000F10888EE880E83E0981EA11CB11CC11423
:10303000D104E104F10429F7FF90EF90DF90CF90E5
:10304000BF90AF909F908F900895789484B58260E0
:1030500084BD84B5816084BD85B5826085BD85B53C
:10306000816085BDEEE6F0E0808181608083E1E8EB
:10307000F0E0108280818260808380818160808323
:10308000E0E8F0E0808181608083E1E9F0E0808128
:1030900082608083808181608083E0E9F0E08081CC
:1030A00081608083E1ECF0E08081846080838081B6
:1030B00082608083808181608083E3ECF0E08081A6
:1030C00081608083E0ECF0E0808182608083E2ECCC
:1030D000F0E0808181608083EAE7F0E080818460B5
:1030E0008083808182608083808181608083808111
:1030F000806880830895CF93DF931F92CDB7DEB7AA
:103100006983DC01ED91FC910280F381E02D41E0C7
:1031100050E0BE016F5F7F4F09950F90DF91CF9117
:103120000895CF93DF93EC018C859D8597FF05C0B3
:1031300082E00E94681B9D878C878C859D85DF912E
:10314000CF91089583E00E947F1B90E0089583E073
:103150000C94EE1DFC018485958597FD06C082E0E8
:103160000E94181B90E00196089582E00E94181BAF
:1031700090E00895FC018485958597FD05C02FEFAB
:103180003FEF35872487089582E00C94681BCF9326
:10319000DF93EC0180912301882331F083E00E94CA
:1031A000991B1816190634F081E090E09B838A83FE
:1031B00080E090E0DF91CF910895EEEFFFE7259159
:1031C000349181E02B3F3C4D09F080E00895FC01F3
:1031D00090819E5F908342E450E068E273E080E873
:1031E0000C944A1CFC0181819081913A61F48132F6
:1031F00009F083C047E050E06CE171E080E00E949C
:103200004A1C81E00895913209F077C0833269F455
:1032100082819381B0E0A0E080931801909319011E
:10322000A0931A01B0931B01ECCF803239F467E010
:1032300070E08CE191E00E94701CE3CF823209F7CC
:103240008281809323010E94DD18E0E0F8E088236A
:1032500011F0EEEFFAE080911C0190911D01A09118
:103260001E01B0911F01803B9440A105B105D9F426
:103270008091230180FD17C0EE3F8AE0F80771F5C9
:1032800087E797E791838083809160008093A00413
:1032900088E19BE00FB6F894A895809360000FBE7C
:1032A00090936000AECF808191818737974709F076
:1032B000A8CFA8958091600088618093600080917C
:1032C000A00480936000EE3F8AE0F80789F08091C7
:1032D000FE0A9091FF0A9183808393CF8081918130
:1032E0008737980769F29093FF0A8093FE0AC8CF48
:1032F0001092FF0A1092FE0A84CF80E008952FEF0B
:103300003FEFFC01358724870895E0E5F4E0138260
:10331000128288EE93E0A0E0B0E084839583A683D8
:10332000B78382E691E0918380838FEF9FEF95874B
:1033300084870895EF92FF920F931F93CF93DF93AB
:103340007B01FC01C281D38110E000E0209791F065
:10335000E881F9810280F381E02DB701CE01099562
:1033600097FD06C0080F191F0884D985C02DEECF20
:103370000FEF1FEFC801DF91CF911F910F91FF90C9
:10338000EF9008950F931F93CF93DF938B01FC0170
:10339000C281D381209771F0E881F9810480F581A1
:1033A000E02DB801CE010995009731F40884D98544
:1033B000C02DF0CF90E080E0DF91CF911F910F9171
:1033C00008950F931F93CF93DF938B01FC01C2816C
:1033D000D381209771F0E881F9810680F781E02D93
:1033E000B801CE010995080F111D0884D985C02D9B
:1033F000F0CFF8011082DF91CF911F910F910895C6
:103400000F931F93CF93DF938B01FC01C281D38174
:10341000209771F0E881F9810190F081E02DB801E9
:10342000CE010995811105C00884D985C02DF0CF42
:1034300080E0DF91CF911F910F910895CF93DF939B
:10344000FC01DB01218114968C911497820F99273E
:10345000991F08978CF5C281D381209731F573832A
:103460006283908112969C93129713962C931397D4
:1034700015968C911597890F808380E014969C9106
:1034800014978917E8F41696CD91DC911797C80F19
:10349000D11D9881C181D0E0CC5DDE4F98839181B0
:1034A0009F5F91838F5FEACFEC01888599850097B4
:1034B000D9F7B987A887D5CF80E0DF91CF9108955C
:1034C00081E0FBCF8091A10481110DC082E0809347
:1034D000A90484E08093AA041092AC041092AB0477
:1034E00081E08093A10489EA94E008954091B004BA
:1034F0005091B1042091AE043091AF0442175307AC
:10350000B4F49091E8009570E1F39091E80092FD99
:1035100019C08093F1008091B0049091B10401969C
:103520008F739927892B19F48EEF8093E80080918F
:10353000B0049091B10401969093B1048093B004CB
:1035400081E0089580E00895EF92FF920F931F931A
:10355000CF93DF93F82E192FE62E042F81E0860FEC
:10356000880F0E94761A83E00E94761ACF2DD12F01
:10357000EC0EFD2EF11CCE15DF05B9F007FF13C0D0
:10358000FE0184910E94761A182F80E00E94761A1C
:10359000812321968111EFCFDF91CF911F910F9160
:1035A000FF90EF9008958881EDCF81E0F5CF809175
:1035B000D70081608093D70080EA8093D80089B5D6
:1035C000806189BD89B5826089BD09B400FEFDCFE7
:1035D00061E070E080E090E00E94EC178091D800FC
:1035E0008F7C80618093D8008091E000807F809301
:1035F000E0000895CF93DF931F92CDB7DEB7198215
:10360000CE0101960E94E7180E94621ABE016F5F08
:103610007F4F0E949A1989810F90DF91CF91089571
:103620002FB7FC012083F89467706093E900089538
:10363000CF93DF931F92CDB7DEB7682FCE010196EF
:103640000E94101B8091F20099819FBF0F90DF9123
:10365000CF910895EF92FF920F931F93CF93DF9333
:103660001F92CDB7DEB79091B404992371F157FD45
:103670002CC08A017B01682FCE0101960E94101B8D
:103680008091F20090E0081719070CF4C801282F68
:10369000F70144E6215030F04093B5043091F10039
:1036A0003193F8CF009739F02091F200211103C037
:1036B0002BE62093E80029812FBF0F90DF91CF9157
:1036C0001F910F91FF90EF9008958FEF9FEFF5CF2F
:1036D000CF93DF931F92CDB7DEB741E050E0BE013C
:1036E0006F5F7F4F0E942A1B019731F4898190E020
:1036F0000F90DF91CF9108958FEF9FEFF9CFCF9388
:10370000DF931F92CDB7DEB7682FCE0101960E94DE
:10371000101B9091E800892F807295FF04C0909152
:10372000F20080E4891B99819FBF0F90DF91CF91B8
:1037300008955F926F927F928F929F92AF92BF9205
:10374000CF92DF92EF92FF920F931F93CF93DF936D
:103750001F92CDB7DEB7982E6B01B42E052F809146
:10376000B404811113C08FEF9FEF0F90DF91CF91C1
:103770001F910F91FF90EF90DF90CF90BF90AF908F
:103780009F908F907F906F905F9008958091B2048A
:1037900080FF05C08091E00082608093E000EB2C08
:1037A000F02EA12C8AEF882E892D8072682E892D0B
:1037B0008074582E9AE3792EE114F10419F4AA20AA
:1037C00009F457C0892D0E947F1B182F81110AC050
:1037D0008A94882041F261E070E080E090E00E94ED
:1037E000EC17EACF8E151F0411F00CF01E2D692D79
:1037F000CE0101960E94101B8091E80085FD03C058
:1038000089818FBFD9CF812F90E0E81AF90A66200D
:1038100029F01150A0F01092F100FBCFF60197FCB7
:103820000AC0115050F021912093F100FACF249159
:103830002093F10031961150D0F7C80ED91EAA205E
:1038400021F07092E800A12CDBCF8091E80085FD8B
:1038500008C07092E800AA24A394E114F10481F254
:10386000F2CFE114F10461F6552051F27092E800B4
:10387000C7CF84E68093B6048B2D902F76CF10921D
:10388000E9001092B1041092B0049093AF048093B9
:10389000AE040895DF92EF92FF920F931F93CF93A0
:1038A000DF93D82E8A01EB017B01E40EF51ECE15C5
:1038B000DF0559F0D7FE12C0FE0184910E94761AEE
:1038C00021968111F4CF0FEF1FEFC801DF91CF9147
:1038D0001F910F91FF90EF90DF9008958881EECFB8
:1038E000CF93DF93EC019B01B4E6ABEF21153105DB
:1038F000F1F0A9012134310514F040E450E0809149
:10390000E80082FFFCCF942FFB01E21BF30BEC0FCE
:10391000FD1F915028F08091F10080833196F9CFFE
:10392000B093B504A093E800241B350BDFCFCB0187
:10393000DF91CF9108951F920F920FB60F9211242D
:10394000CF92DF92FF920F931F932F933F934F934A
:103950005F936F937F938F939F93AF93BF93EF93F7
:10396000FF93CF93DF93CDB7DEB76C97DEBFCDBFAC
:103970001092E9008091E80083FF2FC089E0FE01EA
:103980007596FE2E0F2F815029F09091F1009083B3
:103990003196F9CF84E68093B50482EF8093E800F6
:1039A0008D8987FF38C09091E80090FFFCCF982F59
:1039B000907609F000C19E894F89588D2F89188D06
:1039C000911130C0803859F58091B3048093F10093
:1039D0001092F1008EEF8093E8006C960FB6F89489
:1039E000DEBF0FBECDBFDF91CF91FF91EF91BF91B1
:1039F000AF919F918F917F916F915F914F913F9187
:103A00002F911F910F91FF90DF90CF900F900FBEDD
:103A10000F901F9018959EEF9093E800C8CF1092DA
:103A2000F100D6CF913059F48111D4CF41305105F6
:103A300089F68091B3048D7F8093B304CBCF93300C
:103A400049F48111C7CF4130510521F68091B3046B
:103A50008260F2CF953041F48091E80080FFFCCF86
:103A600020682093E300B6CF963009F076C0CB8C67
:103A7000DC8C123039F590E080E00E943F1C0E94FF
:103A8000FA1A1F8299E099831A8391E09E8390EA43
:103A900098879AEF99872091B0043091B104275FFD
:103AA0003F4F3C832B838D83C6010E943F1C49E01E
:103AB00050E0BE016F5F7F4F80E00E944A1C0E9471
:103AC000FA1A88CFC6010E943F1C0E94621A6F2D0D
:103AD000702F0E94C219009731F00CF07BCF81E269
:103AE0008093EB007ACF113061F11330C1F78F89E9
:103AF000882381F1823049F440E86AE087E893E066
:103B00000E94A41A882359F365CF813029F440E834
:103B10006AE08CE793E0F4CF833009F70E94621AE1
:103B20008E010F5F1F4FB8010E94E119F80101904B
:103B30000020E9F73197BF01601B710B40E0C8011D
:103B4000DFCF6AE673E0FB01449150E080E80E9419
:103B50004A1C40CF62E973E0F6CF973009F4BFCF3B
:103B6000983021F481E08093F10034CF993009F04E
:103B700031CF837009F0B3CFE5E2F1E081E031E0CD
:103B800096E32191222371F08093E9003093EB00BA
:103B9000DF0111972C912093EC009093ED008F5F43
:103BA000873079F78EE78093EA001092EA008F89D8
:103BB0008093B4040FCF8B8D9C8D0E943F1C898D08
:103BC000811105C08F2D902F0E94F2189BCF0E946B
:103BD000621A6F2D702F0E94001A94CF8093E90013
:103BE0008091F200882319F08AE38093E800089519
:103BF0001F920F920FB60F9211242F933F934F9362
:103C00005F936F937F938F939F93AF93BF93CF9364
:103C1000EF93FF93C091E1008091E100837F809357
:103C2000E100C3FF0FC01092E90081E08093EB0038
:103C30001092EC0082E38093ED001092B40488E0CF
:103C40008093F000C2FF15C083E00E94EE1D8091BA
:103C5000B604882329F08091B60481508093B6047D
:103C60008091B504882329F08091B5048150809318
:103C7000B504C4FF23C08091E2008E7E81608093F2
:103C8000E2008091E1008F7E8093E1008091B20498
:103C90008E7E80618093B204FF91EF91CF91BF91AE
:103CA000AF919F918F917F916F915F914F913F91D4
:103CB0002F910F900FBE0F901F901895C0FFECCF63
:103CC0008091E2008E7E80618093E2008091E1002D
:103CD0008E7E8093E1008091B2048E7E8160DACF87
:103CE0001092B4041092B3041092B2040E94D71A36
:103CF000E1EEF0E080818E7E80838DE08093E200B3
:103D0000559A209A08958091E0008D7F8093E0007D
:103D10008091E00081FD11C08091B20480FF0DC050
:103D20008091B30481FF09C00E94D71A8091E000FE
:103D300082608093E00081E0089580E00895089516
:103D4000991B79E004C0991F961708F0961B881FED
:103D50007A95C9F780950895AA1BBB1B51E107C04E
:103D6000AA1FBB1FA617B70710F0A61BB70B881F0B
:103D7000991F5A95A9F780959095BC01CD0108959A
:103D800097FB072E16F4009407D077FD09D00E9408
:103D9000AC1E07FC05D03EF4909581959F4F089589
:103DA000709561957F4F0895EE0FFF1F0590F49178
:103DB000E02D0994FB01DC0104C08D910190801974
:103DC00021F441505040C8F7881B990B0895F8948E
:023DD000FFCF23
:103DD200C80002AA04010501FF32000140000101EE
:103DE2000001FFC800107F02FFFFFFFF00E100009B
:103DF2000000000000C180810000003031323392A7
:103E0200936600000000F8117211BD1163110000E9
:103E120000004B13E3122E13DC12000000000817FF
:103E22009D162B17DC12E616F6FF000005170000A0
:103E320000007B18C718A218A718AA18BA18911858
:00000001FF
